:020000040800F2
:10000000B0B00020DD2401089D2301089F230108D2
:10001000A1230108A3230108A52301080000000073
:10002000000000000000000000000000A7230108FD
:10003000A923010800000000AB230108AD2301083B
:100040000125010805250108092501080D250108DC
:100050001125010815250108192501081D2501088C
:10006000B1230108B723010821250108252501082E
:10007000292501082D25010831250108352501080C
:10008000392501083D2501084125010845250108BC
:10009000492501084D25010851250108552501086C
:1000A000592501085D25010861250108652501081C
:1000B000692501086D2501087125010875250108CC
:1000C000792501087D25010881250108852501087C
:1000D000892501088D25010891250108952501082C
:1000E000992501089D250108A1250108A5250108DC
:1000F000A9250108AD250108B1250108B52501088C
:10010000B9250108BD250108C1250108C52501083B
:10011000C9250108CD250108D1250108D5250108EB
:10012000D9250108DD250108E1250108E52501089B
:10013000E9250108ED250108F1250108F52501084B
:10014000F9250108FD25010801260108BD23010844
:1001500005260108092601080D26010811260108B7
:1001600015260108192601081D2601082126010867
:1001700025260108292601082D2601080000000077
:10018000312601083526010881B002210846411EAA
:100190000028FBD1DFF8500A0188ADF80010BDF847
:1001A000000001B0704738B5DFF8444A2388984210
:1001B0003CBF6588A94201D3002032BD00F028F879
:1001C000A188DFF8280A45F21052914207BF4FF488
:1001D0003853ADF800302E22ADF8002000F075F94C
:1001E000FFF7D2FFA48841F663118C420FD0FFF7CE
:1001F000CBFF47F296718C4209D00406A40EC10AC7
:10020000640144EAC124FFF7BFFF44EAD02032BDB5
:10021000F8B5DFF8DC39DFF8D4599A88B3F80AE08A
:1002200001F0FF04090A070A41F6631C624500F069
:10023000FF064AD19A790ABB1E88ADF800E0721E0B
:10024000BDF800602E80101A0022ADF80020BDF825
:1002500000606E80ADF800200204BDF800606E8082
:10026000120EADF8002000F0FF00BDF800606E80B7
:10027000ADF80000BDF800206A8012E0ADF800E0A3
:1002800000F050F800F0DDFA1A88521E1212ADF894
:10029000002000F0D8FA1A88561E06F0FF0600F07B
:1002A000D0FA00F048F8ADF8004000F0CCFA5988D8
:1002B000491E0912ADF8001000F0C5FA5988481E11
:1002C00000F0FF00ADF8000029E045F21050824236
:1002D000ADF800E000F026F813D15A89521CADF8B1
:1002E0000020BDF800202A8000F0ABFA00F023F8CF
:1002F000998900F02CF8ADF80040BDF800206A8024
:10030000F1BD00F09EFA9A89ADF80020BDF80030EA
:100310002B80ADF8001000F096FAADF8004000F028
:1003200092FAF1BDBDF800202A80ADF80070BDF84A
:100330000000688070479A89ADF80020BDF8006021
:100340002E80ADF80010BDF8000068807047491C91
:10035000ADF80010BDF8001029807047F8B5DFF83F
:10036000902891790023012941F6631403D19188E3
:10037000A14205D10CE0002904BF9188A14207D118
:10038000072805D8DFE800F0171913150D1A110F0B
:10039000401E062812D8DFE800F00406080A0C0EFA
:1003A000100080230AE0402308E0C02306E0202359
:1003B00004E0602302E0A02300E0E02390883621DF
:1003C00045F21055A84208BF4FF458510CD049F2DD
:1003D0004136B0421FBF47F28977B84247F296765E
:1003E000B04201D143F00803DFF8000801804380E8
:1003F0009188A1423CD0548816889B0602D5A6421B
:1004000004D201E0B44201D214805680A9422FD117
:1004100000F04BF800235189491CADF8001000F0A2
:1004200054F800F059F8538900F04CF8138800F0A4
:1004300051F85389DB1C00F046F800F053F893891B
:100440005B1CADF80030002300F03FF800F044F8EA
:10045000938900F037F800F03CF89389DB1C00F03A
:1004600032F85288531E03F0FF03ADF8003019E054
:1004700000F01BF8ADF80010BDF800304380118883
:10048000491E0912ADF8001000F028F800F02AF813
:1004900000F022F800F01DF85288511E01F0FF0113
:1004A000ADF8001000F01AF8F1BD5189ADF8001058
:1004B0000021BDF800300380ADF80010BDF8003019
:1004C000438070479B1CADF80030BDF800100180E0
:1004D000704753885B1E1B12ADF80030BDF800104A
:1004E0004180704713885C1E04F0FF04ADF80040A3
:1004F000BDF8001041809389ADF800300023BDF8AD
:1005000000100180ADF80030BDF800104180704748
:1005100010B51446FFF77CFEDFF8D416DFF8CC06E2
:100520000A890280448010BD38B5BE21ADF80010A4
:100530000522DFF8B84602F0F4FFADF80020BDF860
:100540000050658003F008F94FF06632DFF8DC37C1
:1005500003F01EF903F0F2F9ADF80000012100F0FC
:10056000DEFFFF2101F08DF8ADF8001003F068F810
:1005700031BD2DE9F047DFF8781649F6060288719B
:1005800047F2967345F2103A41F663154FF44876F8
:100590004FF4F0774FF42C5C4FF4285E4FF4305852
:1005A00045F210594FF4A07428BBF02008804C800D
:1005B0008888484506D1A1F80880A1F80AE0A1F88A
:1005C0000CC015E0A84206D12C2008812B222A203D
:1005D0004A8188810CE02C250D812A254D812B250F
:1005E0008D81504512BF98420C804F80904221D19E
:1005F0000F804E801EE00C80F0204880888848459F
:1006000008D1A1F80880A1F80AE0A1F80CC00E807A
:100610004F800FE0A84218BF904204D100F00EF8BE
:100620000E804F8001E000F009F8504512BF98425B
:100630000F804C80BDE8F04700208FE62C220A8115
:100640002A252B224D818A8170472DE9F54F81B0F3
:100650001846BDF80430BDF80450D31844185E1E87
:10066000671EDFF88C45B6B2BFB205F0FF0807F091
:10067000FF0206F0FF03B4F804C0BDF804503F0ABF
:10068000360A41F6631B4FEA1529DC4501F0FF0AE3
:100690004FEA112EDFF8545554D194F806C0BCF13E
:1006A000010F00F09E802388BDF808209B1ABDF83A
:1006B00004209A1A6389ADF80030491E0818BDF865
:1006C0000010298013041B0EADF8003002F0FF0368
:1006D000BDF800106980ADF80030BDF800106980E9
:1006E000BDF8083013FA82F35B1E1B12ADF8003020
:1006F000BDF800306B80BDF808108A18521E02F059
:10070000FF02ADF80020BDF800106980A289ADF8A5
:1007100000200204BDF800302B80ADF800E0120E7E
:10072000BDF800106980ADF800A000F0FF00BDF832
:1007300000106980ADF80020BDF800106980ADF8A8
:1007400000007AE045F210518C454AD16089ADF83D
:100750000000BDF800102980ADF80090BDF8000041
:1007600068806189491CADF80010BDF8001029802F
:10077000ADF80080BDF8000068806189891CADF883
:100780000010BDF800102980ADF80060BDF8000031
:1007900068806189C91CADF80010BDF8001029807F
:1007A000ADF80030BDF800006880A189ADF80010F8
:1007B000BDF800302B80ADF800E000F044F8A189CE
:1007C000FFF7C5FDADF800A000F03DF8A189891C38
:1007D000FFF7BEFD00F03BF8A189C91CFFF7B8FD8B
:1007E00029E06189ADF80010BDF800002880ADF85F
:1007F0000090BDF800006880ADF80080BDF80000F2
:100800006880ADF80060BDF800006880ADF8003089
:10081000BDF800006880A189ADF80010BDF8003077
:100820002B80ADF800E000F00EF8ADF800A000F06D
:100830000AF800F00CF8ADF8002000F004F8BDE86C
:10084000F78FADF80060BDF8000068807047ADF824
:100850000070BDF80000688070472DE9F84F94B033
:10086000002000904FF48056DFF8C404DFF8C44441
:100870000168DFF8C494DFF8785341F0400101606B
:10088000026802F040020092002200990092036880
:1008900000F079F900F077F943F020030360016874
:1008A00001F02001009100990092036843F00203D7
:1008B0000360016801F00201009100990092012299
:1008C000036843F0020303600221006800F00200A5
:1008D00000900098DFF864040392029104910C22C6
:1008E0000592019601A903F047F8202101912046C5
:1008F00001A903F041F81020019001A9204603F05E
:100900003BF8019601A9DFF8380403F035F84FF4FD
:10091000004101910122029201A9484603F02CF8FE
:10092000012101910291484601A903F025F8012215
:100930000121484603F000F94FF0204028610F22C2
:10094000DFF8001469610620A8610D9200211020D3
:100950003C22E9616862A96269630F9200204FF44A
:1009600080410922E862AE63E86329646864A86490
:100970000E9013900692079008920C9006AA0DA96B
:1009800005F1100003F004F9322003F02BF9D32015
:10099000ADF8000049F2413ADFF85072BDF80000AE
:1009A000388045F21056FFF7EFFBA88047F2967BA0
:1009B000FFF7EAFBA88045F21038FFF7E5FB0002DD
:1009C000A88047F28974FFF7DFFBA98808435045E8
:1009D000A88000F08480042000F0EBF800F0E6F836
:1009E00000F0E4F800F0E1F8A988014348F252521F
:1009F000A98091420CBFAC80A1426BD0D42000F002
:100A0000D8F800F0D3F800F0D1F800F0CEF8A988BB
:100A100008434045A88067D0D32000F0CAF800F012
:100A2000C5F800F0C3F800F0C0F8A988084358459D
:100A3000A8805ED04FF470403880552179804FF205
:100A400001023A80AA2078804FF2020139805222B6
:100A50007A804FF203003880082179804FF2040237
:100A60003A80012078804FF4454100F097F8000269
:100A7000A8804CF2015000F09CF8A9880843A88097
:100A8000052003F0AFF8A888B04237D0D32100F09A
:100A900085F800F08BF800F089F800F086F8A98856
:100AA00049F6060208439042A8802ED0A12000F00B
:100AB00080F800F07BF800F078F8A98845F26172C0
:100AC00001439142A98003D141F66311A98023E03B
:100AD000A14202D100F038F923E0514502D100F0E3
:100AE000C3F91EE0414502D100F0E2FA19E0594590
:100AF00002D101F028FA14E0B14202D101F087FBE3
:100B00000FE049F60602914202D102F01FFB08E015
:100B100041F66310814218D102F018FD6420FFF7FE
:100B200003FDA888A04203D103210691089114E097
:100B300049F6060188421CBF5045B04201D102224D
:100B400009E0404518BF584504D0A88841F6631114
:100B5000884208D10122069208922B6CAA69686922
:100B600006A903F09BF80120FFF703FD01224FF4D3
:100B70000041484602F0E0FF4FF6FF7000F020F819
:100B800015B0BDE8F08F43F008030360016801F081
:100B9000080100910099009203687047ADF80010B9
:100BA000BDF800003880FFF7EFBA0002A880FFF719
:100BB000EBBAADF80000BDF800103980FFF7E4BAD9
:100BC000F8B50B4F3E880446788846430021002044
:100BD000FFF71EFB054839890180002501E04480AC
:100BE0006D1CB542FBD3F1BD8000006C7E00006C33
:100BF000000000202DE9FE4F9C0803EB5475ED0822
:100C00000F46B3EBC50118BF012101EBD30459080E
:100C10004C43E4B20294203A0C2BB946D2B2DFF82E
:100C2000D44806D0102B0FD0182B13D0202B17D060
:100C30004CE00C214A43A1180191DDF830B0DDF8F9
:100C40003480002506462CE004EB021101F27442C8
:100C50000192F2E724214A43A11801F66422F7E742
:100C600004EB821101F5BE52F2E7BBF1000F06D191
:100C7000DFF884381A6EB9B2B0B2FFF749FCDFF87A
:100C8000780842887F1CB9B291424FEA4A0A1DD2C5
:100C90009DF80030A1EB0901994211D0641E0AD1E0
:100CA0006D1C0299E8B2884210DA019A12F800A08D
:100CB0008DF8003008245FEA0A60D6D54246DAE7AC
:100CC000761C0088B1B281424F46E9D3BDE8F78F68
:100CD0002DE9FE4F07460C46DDF83090DDF834B0C4
:100CE0000E9E5FFA87F8BD1804EB030A0BE00023A1
:100CF000019600934B461BF8012BA1B2B8B2FFF747
:100D000079FF07EB59079BF8000020385F280AD2CB
:100D1000B8B2A9B2884224BF47464C44A0B21FFAD9
:100D20008AF18842E3D3BDE8F78F0000666604408D
:100D300030380240000C024000040240001802401B
:100D400000140240040100A01CB501F055FA362140
:100D500001F092F93A2102F08CFCB22100F04EF839
:100D600000F00EFC332100F02DFCB72100F0D7FB82
:100D7000352101F084F9BB2101F087F901F07FF9F9
:100D8000C02100F03BF8C22101F02AFAC32100F093
:100D90005AFC202100F0BBFB00F028F9D02100F024
:100DA000D2FB01F06CF9A12100F0B9FBE02100F0C9
:100DB00031F8322101F0C8F9422100F0BDFB01F009
:100DC00003FA122100F0ABFB142100F014FDE12125
:100DD00000F020F8312100F0FDF8472101F0F4F98E
:100DE0001C2100F008FD1B2100F099FB1E2100F0E2
:100DF00037F900F007F901F058F9D4E0BDF8000028
:100E00006080ADF800100C21BDF800002080ADF826
:100E100000107047BDF800006080ADF80010D021D0
:100E2000BDF800002080ADF800100021BDF80000E2
:100E30006080ADF800100221BDF800006080ADF8C0
:100E400000100721BDF800006080ADF800100A21F5
:100E5000BDF800006080ADF800102821BDF800004A
:100E60006080ADF8001070471CB5CF20ADF80000D1
:100E70000021DFF8884600F09FF800F0A4F800F0A9
:100E80004EFBED2100F04BFB642101F0F8F803214B
:100E900001F042F9812100F042FBE82100F03FFB24
:100EA000852100F0E2FB7A2100F039FBCB2100F034
:100EB00036FB392100F024FB00F06EFB01F0ECF86A
:100EC0006080ADF80010F72102F087FA01F0D7F842
:100ED000EA2100F019FCC02100F021FB1B2100F0E9
:100EE0006BF801F07DF9C52100F06DF801F038F9DB
:100EF000ADF80010C72100F05CFBB721ADF8001081
:100F0000362102F09DFB00F096F8B12100F0F0FBD5
:100F10001A2100F004FB01F02CF9F22100F0E8FBAB
:100F2000262101F05DF9E02100F060F82A2102F0AD
:100F30007DFA082101F048F9082100F04BF8A921B9
:100F400000F0EDFA432102F0AFFA002100F045FB7A
:100F500001F0BCF800F0CCFB02F072FB1521ADF8FB
:100F60000010172102F032FA02F029FA02F076FAA4
:100F70002B2100F0D4FA562100F0D7FA00F0F8FA4D
:100F800001F0C3F802F096FA3F2100F0C8FA02F02F
:100F900091FA00F037F800F063F8112100F0BFFA81
:100FA00000F080F8292100F001F813BDADF8001021
:100FB000BDF8000020807047BDF800002080ADF82B
:100FC0000010C1217047BDF800006080ADF800102E
:100FD00030217047BDF800006080ADF8001054214A
:100FE000BDF800006080ADF800107047BDF800004B
:100FF0006080ADF800100F21BDF800002080ADF832
:10100000001070472B21BDF800006080ADF8001083
:101010000021BDF800002080ADF80010BDF80000F0
:101020006080ADF800100121BDF800006080ADF8CF
:1010300000103F217047ADF800104821BDF80000B6
:101040002080ADF800103A21BDF800006080ADF8B6
:1010500000105521BDF800002080ADF80010704749
:10106000BDF800006080ADF800102A21BDF8000036
:101070006080ADF800100021BDF800002080ADF8C0
:101080000010BDF800006080ADF80010BDF8000051
:101090006080ADF80010EF21BDF800006080ADF871
:1010A000001070477820BDF80020228002F09ABD21
:1010B00038B5ED20ADF800000121DFF8404400F024
:1010C000DEFFFE2100F02BFAEE2100F028FADE21EF
:1010D00000F0D5FF212100F022FAF12101F080F883
:1010E000DF2100F0B0FA8F2100F011FA00F000FBD0
:1010F000E22100F072FABF2100F033FA00F0BFFFE6
:10110000B02100F0DCFF00F0D1FA0D2100F038FA38
:10111000112100F035FA192100F032FA212100F0F6
:101120002FFA2D2100F0ADFA3D21ADF8001000F0AE
:10113000F5F95D2100F024FA5D2100F021FAB121DA
:1011400000F0EDF9802100F0B1FA8B2100F018FADF
:10115000962100F015FAB22100F0D6FA00F00FFA4D
:10116000032100F00DFAB32100F0B9FC00F08EFC71
:10117000B42100F0D4F98B2100F098FA962100F008
:10118000FFF9A12100F0FCF9B52100F0C8F9022116
:1011900000F08CFA032100F0DDF901F009F80021DC
:1011A00002F060FA00F0B0FAB72100F0ADFA3F218A
:1011B00000F0E6F95E2100F0E3F9642100F0E0F9C7
:1011C0008C2100F0DDF9AC2100F0F7FA702100F07D
:1011D000D7F9902100F0D4F9EB2100F0EEFAB82114
:1011E00000F086FAFF2502F045F900F0EBF9BA218C
:1011F00000F095F9242100F065FAC12102F051FABE
:10120000542100F03EFAADF8005000F088F9C221F8
:1012100002F0CEF800F04AFA042100F0B1F9C3213F
:1012200000F083F900F042FA3A2100F0A9F93921DF
:1012300000F0A6F9372100F090FD02F001FA00213C
:10124000ADF80010232100F088FD00F0E9F9C42179
:1012500000F065F9622100F029FA052100F090F90B
:10126000842100F077F900F097FF00F057F902F0C1
:10127000E7F91821ADF80010002100F064F900F042
:101280007FF9182100F07CF9502100F079F90C2148
:1012900000F0ABFA00F042F9952100F0B8FA00F046
:1012A0003DF9C52100F0FCF9442100F069F9652100
:1012B00000F066F9762100F0D1FBC62102F0F1F9C9
:1012C00002F0BEF91721ADF8001000F096F9C72121
:1012D00000F063FBC82100F060FBC92100F0FFFBB8
:1012E000E02100F0CAFA212100F037FA462100F08F
:1012F000A6FDD92100F003FBE12100F0BEFA222176
:1013000000F02BFA452100F09AFDD82100F0F7FA01
:10131000E22100F02DF900F0C9F90B2100F030F9BD
:101320001B2100F039F900F031FC4F2100F028F9C1
:10133000612100F025F9792100F040FCD62100F070
:10134000BAFAE32100F014F900F0B0F90A2102F032
:1013500077F900F09BFA332100F018FC502100F0DF
:101360000FF9622100F00CF9782100F027FCD5215B
:1013700000F0A1FAE42100F033FF00F03EF900F0A4
:10138000FEF82A2100F0DFFA002102F059F900F0FE
:1013900075FCDD2100F0F4F8F32100F0F1F8E5210F
:1013A00000F0FBFA00F0EBF8292100F0CCFA02F093
:1013B00047F9002100F062FCDC2100F028FA11213D
:1013C00000F074F9342100F0DBF8562100F0DDF96B
:1013D00002F036F9772100F038FB992100F0F8FA95
:1013E00000F0A3F9432100F0D1FBE72100F058F908
:1013F000552100F0CAF9662100F07BFE672100F05C
:10140000BFF8672100F0BCF8872100F01EFABB216D
:1014100000F01BFA772100F0B9FB562100F07FF8AD
:1014200000F0FEF8332100F080F9E82100F060F9C7
:1014300000F011FA872100F011FB772102F000F98A
:1014400000F003FBAA2100F0C3FA00F09FFB442147
:1014500000F096F8552100F093F8E92100F081F8AA
:1014600000F030F900F07DF800F07AFECF2100F0B6
:1014700003FE00F00BFB00F009FBF02100F038F94F
:10148000502102F020F9F32100F032F9F92100F0A7
:1014900053F800F0EAF8292100F05CF802F0D0F8E7
:1014A000FFF7CFFD112100F03AF86420FFF7FBFDB4
:1014B0002921ADF80010352100F0E1FDFFF778FD9E
:1014C0000021ADF80010512102F013F85321BDF8AE
:1014D00000202280ADF8005000F021F82C2100F00F
:1014E000CEFD552100F01BF8822100F009F800F034
:1014F00060F831BD44E90008000000207E00006C67
:10150000BDF800002080ADF800102C217047BDF818
:1015100000002080ADF80010C62170470021BDF802
:1015200000006080ADF800107047BDF800006080DA
:10153000ADF800103C217047BDF800006080ADF8A8
:10154000001006217047BDF800006080ADF8001063
:10155000A4217047BDF800006080ADF800100021A4
:101560007047BDF800006080ADF80010AA217047F8
:10157000BDF800006080ADF8001005217047022121
:10158000BDF800006080ADF800100021BDF800003B
:101590006080ADF800107047BDF800006080ADF8C5
:1015A00000100021BDF800006080ADF8001034216B
:1015B0007047BDF800006080ADF80010BDF8000075
:1015C00020807047BDF800006080ADF80010BDF8C5
:1015D00000006080ADF800107047BDF8000060802A
:1015E000ADF80010BDF800006080ADF80010BDF847
:1015F00000006080ADF8001070470021BDF80000C9
:101600006080ADF800100121BDF800006080ADF8E9
:1016100000100021BDF800006080ADF80010704798
:101620000021BDF800006080ADF800102321BDF856
:1016300000006080ADF800100021BDF8000060805F
:10164000ADF800107047BDF800006080ADF80010E4
:101650001021BDF800002080ADF80010C421BDF8B5
:1016600000006080ADF800107047BDF800002080D9
:10167000ADF800101021BDF800006080ADF800103A
:101680007047BDF800006080ADF800100021BDF883
:1016900000006080ADF80010BDF800006080704769
:1016A000BDF800006080ADF800103221BDF80000E8
:1016B0002080ADF800100021BDF800006080ADF87A
:1016C00000107047BDF800002080ADF80010002128
:1016D000BDF800006080ADF80010BDF8000060802B
:1016E000ADF80010BDF800006080ADF80010704744
:1016F000BDF800006080ADF800100021BDF80000CA
:101700002080ADF800107047BDF800006080ADF893
:1017100000100021BDF800002080ADF80010BDF8D9
:1017200000006080ADF800107047BDF800006080D8
:10173000ADF800100021BDF800006080ADF8001089
:101740004521BDF800006080ADF800100021BDF813
:1017500000006080ADF800107047BDF800006080A8
:10176000ADF800100021BDF800006080ADF8001059
:101770003621BDF800006080ADF800100021BDF8F2
:1017800000006080ADF800107047BDF80000608078
:10179000ADF800100021BDF800006080ADF8001029
:1017A0007621BDF800006080ADF800100021BDF882
:1017B00000006080ADF800107047BDF80000608048
:1017C000ADF800100021BDF800006080ADF80010F9
:1017D000DC21BDF800006080ADF800100021BDF8EC
:1017E00000006080ADF800107047BDF80000608018
:1017F000ADF800100021BDF800006080ADF80010C9
:101800001721BDF800006080ADF800107047BDF8EA
:1018100000006080ADF800100021BDF8000060807D
:10182000ADF80010F321BDF800006080ADF80010A5
:101830000021BDF800006080ADF80010E621BDF881
:1018400000006080ADF800107047BDF800006080B7
:10185000ADF800100021BDF800006080ADF8001068
:101860009921BDF800006080ADF800100021BDF89E
:1018700000006080ADF800107047BDF80000608087
:10188000ADF800101621BDF800002080ADF8001062
:101890000021BDF800006080ADF800101C21BDF8EB
:1018A00000006080ADF800100021BDF800006080ED
:1018B000ADF800107047BDF800006080ADF8001072
:1018C0000021BDF800006080ADF80010DD21BDF8FA
:1018D00000006080ADF800100021BDF800006080BD
:1018E000ADF80010F321BDF800006080ADF80010E5
:1018F0000021BDF800006080ADF800107047BDF811
:1019000000006080ADF800100021BDF8000060808C
:10191000ADF80010E021BDF800006080ADF80010C7
:101920000021BDF800006080ADF80010F321BDF883
:1019300000006080ADF800100021BDF8000060805C
:10194000ADF800107047BDF800006080ADF80010E1
:101950000021BDF800006080ADF800103C21BDF80A
:1019600000006080ADF800100021BDF8000060802C
:10197000ADF800104B21BDF800006080ADF80010FC
:101980000021BDF800006080ADF800105D21BDF8B9
:1019900000006080ADF800107047BDF80000608066
:1019A000ADF800100021BDF800002080ADF8001057
:1019B000BDF800006080ADF80010BDF80000608048
:1019C000ADF80010BDF800006080ADF80010704761
:1019D000BDF800006080ADF800100021BDF80000E7
:1019E0006080ADF80010BB21BDF800006080ADF84C
:1019F00000100021BDF800006080ADF800109921B2
:101A0000BDF800006080ADF800100021BDF80000B6
:101A10006080ADF800106621BDF800006080ADF870
:101A200000100021BDF800006080ADF800105521C5
:101A3000BDF800006080ADF800100021BDF8000086
:101A40006080ADF8001055217047ADF800100021FE
:101A5000BDF800006080ADF800106621BDF8000000
:101A60006080ADF800100021BDF800006080ADF886
:101A700000108821BDF800006080ADF80010002142
:101A8000BDF800006080ADF800107047BDF80000A0
:101A90006080ADF80010BDF800006080ADF8001067
:101AA000BDF800006080ADF80010BDF80000608057
:101AB000ADF80010BDF800006080ADF80010BDF872
:101AC00000006080ADF80010BDF800006080ADF847
:101AD0000010BDF800006080ADF800107047BDF840
:101AE00000006080ADF800100021BDF800002080EB
:101AF000ADF80010BDF800006080ADF80010BDF832
:101B000000006080ADF80010BDF800006080ADF806
:101B10000010BDF800006080ADF80010BDF80000B6
:101B20006080ADF80010BDF800006080ADF80010D6
:101B3000BDF800006080ADF80010BDF800006080C6
:101B4000ADF80010BDF800006080ADF80010BDF8E1
:101B500000006080ADF80010BDF800006080ADF8B6
:101B60000010BDF800006080ADF80010BDF8000066
:101B70006080ADF80010BDF800006080ADF8001086
:101B8000BDF800006080ADF800107047BDF800009F
:101B90006080ADF800100021BDF800006080ADF855
:101BA00000104421BDF800006080ADF80010002155
:101BB000BDF800006080ADF800107047BDF800006F
:101BC0006080ADF800100021BDF800006080ADF825
:101BD00000108821BDF800006080ADF800100021E1
:101BE000BDF800006080ADF800109721BDF800003E
:101BF0006080ADF800100021BDF800006080ADF8F5
:101C00000010A621BDF800006080ADF80010002192
:101C1000BDF800006080ADF80010B721BDF80000ED
:101C20006080ADF800100021BDF800006080ADF8C4
:101C30000010C221BDF800006080ADF80010002146
:101C4000BDF800006080ADF80010C721BDF80000AD
:101C50006080ADF800100021BDF800006080ADF894
:101C60000010D121BDF800006080ADF80010002107
:101C7000BDF800006080ADF800107047ADF80010AE
:101C80007421BDF800006080ADF800100021BDF89F
:101C900000006080ADF800108421BDF80000608075
:101CA000ADF800100021BDF800006080ADF8001014
:101CB0009321BDF800006080ADF800100021BDF850
:101CC00000006080ADF80010A221BDF80000608027
:101CD000ADF800100021BDF800006080ADF80010E4
:101CE000B321BDF800006080ADF800100021BDF800
:101CF00000006080ADF80010BE21BDF800006080DB
:101D0000ADF800100021BDF800006080ADF80010B3
:101D1000C421BDF800006080ADF800100021BDF8BE
:101D200000006080ADF80010CD21BDF8000060809B
:101D3000ADF800100021BDF800006080ADF8001083
:101D4000D321BDF800006080ADF800100021BDF87F
:101D500000006080ADF800107047BDF800006080A2
:101D6000ADF800100021BDF800006080ADF8001053
:101D70003C21BDF800006080ADF800100021BDF8E6
:101D800000006080ADF800103621BDF800006080D2
:101D9000ADF800100021BDF800006080ADF8001023
:101DA0003221BDF800006080ADF800100021BDF8C0
:101DB00000006080ADF800102F21BDF800006080A9
:101DC000ADF800100021BDF800006080ADF80010F3
:101DD0002C21BDF800006080ADF800100021BDF896
:101DE00000006080ADF800102921BDF8000060807F
:101DF000ADF800100021BDF800006080ADF80010C3
:101E00002621BDF800006080ADF800100021BDF86B
:101E100000006080ADF800102421BDF80000608053
:101E2000ADF800100021BDF800006080ADF8001092
:101E30002421BDF800006080ADF800107047BDF8A7
:101E400000006080ADF800100021BDF80000608047
:101E5000ADF800105221BDF800006080ADF8001010
:101E60000021BDF800006080ADF800106421BDF8CD
:101E700000006080ADF800100021BDF80000608017
:101E8000ADF800107A21BDF800006080ADF80010B8
:101E90000021BDF800006080ADF800108B21BDF876
:101EA00000006080ADF800100021BDF800006080E7
:101EB000ADF800109921BDF800006080ADF8001069
:101EC0000021BDF800006080ADF80010A821BDF829
:101ED00000006080ADF800100021BDF800006080B7
:101EE000ADF80010B921BDF800006080ADF8001019
:101EF0000021BDF800006080ADF80010C421BDF8DD
:101F000000006080ADF800100021BDF80000608086
:101F1000ADF80010CA21BDF800006080ADF80010D7
:101F20000021BDF800006080ADF80010D221BDF89E
:101F300000006080ADF800100021BDF80000608056
:101F4000ADF8001070471CB500F056F93621FFF7C8
:101F500072F8F021FFF7E3FAC32100F0BEF89621F2
:101F600001F00AFA00F03CF900F003F9B721FFF79D
:101F7000D6FAC62100F083F8B92100F08DF8208050
:101F8000ADF80010E02101F00CFA01F043FA16213F
:101F9000FFF7C5FAC121FFF7C2FA192100F06FF867
:101FA000C221FFF7BCFAA72100F069F8C521FFF7AD
:101FB000B6FA162100F063F8E82101F0EBF900F021
:101FC0005EF88A2100F095F800F06FF8ADF8001087
:101FD0001921FFF7A4FAA521FFF7A1FA332101F097
:101FE00031FAF02100F04BF8072100F068F800F01A
:101FF000DFF8052100F09CF83621FEF7EBFF4C21BD
:10200000FFF78DFA382101F0BEF900F091F82E218A
:10201000FFF785FA342100F059F8FFF780FAF02134
:10202000FFF723FB142100F0CFF80C2101F0DCF9BD
:102030006080ADF80010352100F086F84C21FFF7E4
:102040006EFA262100F061F800F066F82C2100F00D
:102050001CF800F0A1F83C2100F03FF8692100F0E5
:102060007FF8782001F0BEFD2120ADF80000292086
:1020700001F057FA01F07DB9ADF800100021BDF86C
:1020800000002080ADF800107047BDF800006080AF
:10209000ADF8001032217047BDF800006080ADF847
:1020A00000100221BDF800007047BDF800006080FC
:1020B000ADF800102921BDF8000060807047BDF820
:1020C00000006080ADF800100D217047BDF80000E1
:1020D0006080ADF80010E1217047BDF8000020805D
:1020E000ADF80010F021BDF800006080ADF80010E0
:1020F0007047BDF800006080ADF80010BDF800002A
:1021000060800021ADF800107047BDF800006080CD
:10211000ADF8001010217047BDF800006080ADF8E8
:1021200000101221BDF800006080ADF8001070476B
:10213000BDF800006080ADF800101421BDF800006B
:102140006080ADF800107047BDF800006080ADF809
:1021500000104421BDF800006080ADF80010704709
:10216000BDF800002080ADF80010BDF800006080D0
:102170007047B621BDF800006080ADF800100A215C
:10218000BDF800002080ADF80010A221BDF80000CD
:102190006080ADF800107047BDF800006080ADF8B9
:1021A0000010F021BDF800006080ADF8001070470D
:1021B000BDF800006080ADF800100421BDF80000FB
:1021C0006080ADF800107047BDF800006080ADF889
:1021D00000100E21BDF800006080ADF800107047BF
:1021E000BDF800006080ADF800100121BDF80000CE
:1021F0002080ADF8001070471120ADF80000DFF826
:10220000484FBDF800102180782001F0EBBC2DE98B
:10221000F84FDFF8344F4FF4704020805521618033
:102220004FF201022280AA2060804FF20201218039
:10223000522262804FF203002080082161804FF219
:10224000040222800120608034214FF43640208037
:1022500061804BF201622280342363804BF2026181
:10226000218063800D214FF43043238061804BF245
:10227000010222800D2363804BF2020121806380E2
:1022800024214FF43743238061804BF20172228076
:10229000242363804BF20271218063800D214FF46F
:1022A0003143238061804BF2011222800D23638031
:1022B0004BF20211218063804FF4384121802423A6
:1022C00063804BF601022280242565804BF60203D1
:1022D000238065804FF439464FF4324525804BF614
:1022E0000127002565802680242565804BF6011690
:1022F00026804BF6021524266680258066800525FB
:102300004FF43346268065804BF2013626804BF22F
:10231000023505266680258066804FF43A45258083
:102320003426668027804BF6022634276780268075
:1023300067804FF4354626800B2767804BF2015BA0
:10234000A4F800B067804BF2025CA4F800C067807C
:102350004FF43C4BA4F800B0002767804BF6014CCB
:10236000A4F800C0A32767804BF6024EA4F800E053
:10237000002767804FF43D48A4F8008067804BF643
:102380000159A4F80090A32767804BF6025AA4F8DD
:1023900000A0002767804FF43E4727800027678012
:1023A0004BF601672780372767804FF45147278016
:1023B000002767804DF201172780372767804DF28D
:1023C00002172780002767804DF2031727805327C5
:1023D00067804DF204172780002767804DF20517AC
:1023E0002780792767804DF20617278000276780AE
:1023F0004DF207172780972767804DF2081727802F
:10240000002767804DF209172780B12767804DF2BA
:102410000A172780002767804DF20B172780D527E2
:1024200067804DF20C172780002767804DF20D174B
:102430002780F42767804DF20E17278001276780D9
:102440004DF20F172780232767804DF21017278042
:10245000012767804DF211172780492767804DF2C9
:1024600012172780012767804DF2131727808727CF
:1024700067804DF214172780012767804DF21517EA
:102480002780B62767804DF21617278002276780BE
:102490004DF217172780002767804DF21817278005
:1024A000022767804DF2191727803B2767804DF27E
:1024B0001A172780022767804DF21B1727803D27B8
:1024C00067804DF21C172780022767804DF21D1789
:1024D0002780752767804DF21E17278002276780A7
:1024E0004DF21F172780B12767804DF220172780F4
:1024F000022767804DF221172780D52767804DF28C
:1025000022172780032767804DF22317278009278A
:1025100067804DF224172780032767804DF2251727
:102520002780282767804DF226172780032767809A
:102530004DF227172780522767804DF228172780F2
:10254000032767804DF2291727806B2767804DF29C
:102550002A172780032767804DF22B1727808D27A6
:1025600067804DF22C172780032767804DF22D17C7
:102570002780A22767804DF22E17278003276780C8
:102580004DF22F172780BB2767804DF23017278029
:10259000032767804DF231172780C12767804DF2EE
:1025A00032172780032767804DF233172780C12712
:1025B00067804FF452472780002767804DF201273C
:1025C0002780372767804DF2022727800027678002
:1025D0004DF203272780532767804DF20427278079
:1025E000002767804DF205272780792767804DF205
:1025F00006272780002767804DF207272780972727
:1026000067804DF208272780002767804DF2092751
:102610002780B12767804DF20A272780002767802F
:102620004DF20B272780D52767804DF20C27278096
:10263000002767804DF20D272780F42767804DF231
:102640000E272780012767804DF20F272780232739
:1026500067804DF210272780012767804DF21127F0
:102660002780492767804DF212272780012767803E
:102670004DF213272780872767804DF21427278084
:10268000012767804DF215272780B62767804DF216
:1026900016272780022767804DF2172727800027FB
:1026A00067804DF218272780022767804DF219278F
:1026B00027803B2767804DF21A27278002276780F3
:1026C0004DF21B2727803D2767804DF21C2727806E
:1026D000022767804DF21D272780752767804DF2FE
:1026E0001E272780022767804DF21F272780B127EA
:1026F00067804DF220272780022767804DF221272F
:102700002780D52767804DF22227278003276780FF
:102710004DF223272780092767804DF22427278041
:10272000032767804DF225272780282767804DF2F1
:1027300026272780032767804DF2272727805227E7
:1027400067804DF228272780032767804DF22927CD
:1027500027806B2767804DF22A2727800327678011
:102760004DF22B2727808D2767804DF22C2727805D
:10277000032767804DF22D272780A22767804DF21F
:102780002E272780032767804DF22F272780BB271E
:1027900067804DF230272780032767804DF231276D
:1027A0002780C12767804DF2322727800327678063
:1027B0004DF233272780C12767804FF45347278086
:1027C000002767804DF201372780372767804DF259
:1027D00002372780002767804DF203372780532771
:1027E00067804DF204372780002767804DF2053758
:1027F0002780792767804DF206372780002767807A
:102800004DF207372780972767804DF208372780DA
:10281000002767804DF209372780B12767804DF286
:102820000A372780002767804DF20B372780D5278E
:1028300067804DF20C372780002767804DF20D37F7
:102840002780F42767804DF20E37278001276780A5
:102850004DF20F372780232767804DF210372780EE
:10286000012767804DF211372780492767804DF295
:1028700012372780012767804DF21337278087277B
:1028800067804DF214372780012767804DF2153796
:102890002780B62767804DF216372780022767808A
:1028A0004DF217372780002767804DF218372780B1
:1028B000022767804DF2193727803B2767804DF24A
:1028C0001A372780022767804DF21B3727803D2764
:1028D00067804DF21C372780022767804DF21D3735
:1028E0002780752767804DF21E3727800227678073
:1028F0004DF21F372780B12767804DF220372780A0
:10290000022767804DF221372780D52767804DF257
:1029100022372780032767804DF223372780092736
:1029200067804DF224372780032767804DF22537D3
:102930002780282767804DF2263727800327678066
:102940004DF227372780522767804DF2283727809E
:10295000032767804DF2293727806B2767804DF268
:102960002A372780032767804DF22B3727808D2752
:1029700067804DF22C372780032767804DF22D3773
:102980002780A22767804DF22E3727800327678094
:102990004DF22F372780BB2767804DF230372780D5
:1029A000032767804DF231372780C12767804DF2BA
:1029B00032372780032767804DF233372780C127BE
:1029C00067804FF454472780002767804DF2014706
:1029D0002780372767804DF20247278000276780CE
:1029E0004DF203472780532767804DF20447278025
:1029F000002767804DF205472780792767804DF2D1
:102A000006472780002767804DF2074727809727D2
:102A100067804DF208472780002767804DF20947FD
:102A20002780B12767804DF20A47278000276780FB
:102A30004DF20B472780D52767804DF20C47278042
:102A4000002767804DF20D472780F42767804DF2FD
:102A50000E472780012767804DF20F4727802327E5
:102A600067804DF210472780012767804DF211479C
:102A70002780492767804DF212472780012767800A
:102A80004DF213472780872767804DF21447278030
:102A9000012767804DF215472780B62767804DF2E2
:102AA00016472780022767804DF2174727800027A7
:102AB00067804DF218472780022767804DF219473B
:102AC00027803B2767804DF21A47278002276780BF
:102AD0004DF21B4727803D2767804DF21C4727801A
:102AE000022767804DF21D472780752767804DF2CA
:102AF0001E472780022767804DF21F472780B12796
:102B000067804DF220472780022767804DF22147DA
:102B10002780D52767804DF22247278003276780CB
:102B20004DF223472780092767804DF224472780ED
:102B3000032767804DF225472780282767804DF2BD
:102B400026472780032767804DF227472780522793
:102B500067804DF228472780032767804DF2294779
:102B600027806B2767804DF22A47278003276780DD
:102B70004DF22B4727808D2767804DF22C47278009
:102B8000032767804DF22D472780A22767804DF2EB
:102B90002E472780032767804DF22F472780BB27CA
:102BA00067804DF230472780032767804DF2314719
:102BB0002780C12767804DF232472780032767802F
:102BC0004DF233472780C12767804FF45547278050
:102BD000002767804DF201572780372767804DF225
:102BE00002572780002767804DF20357278053271D
:102BF00067804DF204572780002767804DF2055704
:102C00002780792767804DF2065727800027678045
:102C10004DF207572780972767804DF20857278086
:102C2000002767804DF209572780B12767804DF252
:102C30000A572780002767804DF20B572780D5273A
:102C400067804DF20C572780002767804DF20D57A3
:102C50002780F42767804DF20E5727800127678071
:102C60004DF20F572780232767804DF2105727809A
:102C7000012767804DF211572780492767804DF261
:102C800012572780012767804DF213572780872727
:102C900067804DF214572780012767804DF2155742
:102CA0002780B62767804DF2165727800227678056
:102CB0004DF217572780002767804DF2185727805D
:102CC000022767804DF2195727803B2767804DF216
:102CD0001A572780022767804DF21B5727803D2710
:102CE00067804DF21C572780022767804DF21D57E1
:102CF0002780752767804DF21E572780022767803F
:102D00004DF21F572780B12767804DF2205727804B
:102D1000022767804DF221572780D52767804DF223
:102D200022572780032767804DF2235727800927E2
:102D300067804DF224572780032767804DF225577F
:102D40002780282767804DF2265727800327678032
:102D50004DF227572780522767804DF2285727804A
:102D6000032767804DF2295727806B2767804DF234
:102D70002A572780032767804DF22B5727808D27FE
:102D800067804DF22C572780032767804DF22D571F
:102D90002780A22767804DF22E5727800327678060
:102DA0004DF22F572780BB2767804DF23057278081
:102DB000032767804DF231572780C12767804DF286
:102DC00032572780032767804DF233572780C1276A
:102DD00067804FF456472780002767804DF20167D0
:102DE0002780372767804DF202672780002767809A
:102DF0004DF203672780532767804DF204672780D1
:102E0000002767804DF205672780792767804DF29C
:102E100006672780002767804DF20767278097277E
:102E200067804DF208672780002767804DF20967A9
:102E30002780B12767804DF20A67278000276780C7
:102E40004DF20B672780D52767804DF20C672780EE
:102E5000002767804DF20D672780F42767804DF2C9
:102E60000E672780012767804DF20F672780232791
:102E700067804DF210672780012767804DF2116748
:102E80002780492767804DF21267278001276780D6
:102E90004DF213672780872767804DF214672780DC
:102EA000012767804DF215672780B62767804DF2AE
:102EB00016672780022767804DF217672780002753
:102EC00067804DF218672780022767804DF21967E7
:102ED00027803B2767804DF21A672780022767808B
:102EE0004DF21B6727803D2767804DF21C672780C6
:102EF000022767804DF21D672780752767804DF296
:102F00001E672780022767804DF21F672780B12741
:102F100067804DF220672780022767804DF2216786
:102F20002780D52767804DF2226727800327678097
:102F30004DF223672780092767804DF22467278099
:102F4000032767804DF225672780282767804DF289
:102F500026672780032767804DF22767278052273F
:102F600067804DF228672780032767804DF2296725
:102F700027806B2767804DF22A67278003276780A9
:102F80004DF22B6727808D2767804DF22C672780B5
:102F9000032767804DF22D672780A22767804DF2B7
:102FA0002E672780032767804DF22F672780BB2776
:102FB00067804DF230672780032767804DF23167C5
:102FC0002780C12767804DF23267278003276780FB
:102FD0004DF233672780C12767804FF47047278001
:102FE000552767804FF201072780AA2767804FF295
:102FF00002072780522767804FF2030727800827A0
:1030000067804FF204072780002767804FF430471E
:103010002780002767804BF20107278005276780FC
:103020004BF202072780022767804BF203072780B5
:10303000052767804BF204072780022767802080DE
:1030400008276780268000275026668020804FF45E
:10305000374605206080268067804BF20170208013
:10306000678021800520012161802280608023808B
:10307000052161804BF6030020806180A4F800B038
:1030800002216180A4F800C06780A4F800E0678096
:103090004FF44C402080032262804CF60141218095
:1030A00067804CF6024222806780A4F800800120ED
:1030B0006080A4F8009084216180A4F800A007201B
:1030C00060804BF603512180312262804BF6045020
:1030D000208067802580012262804FF47F4020801D
:1030E000AA2161804FF601722280552060804FF640
:1030F00002712180252262804FF603702080012119
:1031000061804FF458522280402060804FF4545127
:10311000218067804FF468502080052161804FF442
:103120008852ADF80020782000F0E9FA4FF42451DD
:10313000FDF73CFF0A2000F055FD4FF4305000F041
:10314000EEF9BDE8F18F00007E00006C1CB5FF2099
:10315000ADF80000DFF8E44400F0CBFA982100F06D
:10316000C8F9062100F0C5F9BC2100F0C2F901211F
:10317000BDF800202280ADF800100F2100F0B9F951
:10318000612100F0B6F9BDF800206280ADF80000C2
:10319000012200F0D0F90B2200F0C7F9102200F054
:1031A000C4F9372200F0C1F9632200F0BEF9012210
:1031B00000F0AAFA00F0BFF9002200F0BCF9BDF857
:1031C00000106180ADF80000522100F05EFA40214D
:1031D00000F09AF9BD21FFF703F800F00EF967211E
:1031E00000F053FA00F009F900F02AFA6721ADF86F
:1031F0000010BE2100F02FFAFDF7DAFE00F087F98B
:10320000AB21FEF78CF96021FEF789F9222100F04D
:1032100031F9C721FEF783F93621FEF730FFED21A2
:10322000FEF77DF97F21FEF72AFF0F2100F0B9F8A4
:10323000FDF7DCFE0B2100F0BBF8FEF770F9FC2176
:1032400000F0D2F82080ADF80010DF2100F0C5F8C2
:1032500000F03CF900F056F9F321FEF760F9742113
:1032600000F08AF8FEF75BF900F030F9F721ADF8CD
:1032700000108221FEF703FFB12100F084F8FDF772
:1032800097FE00F044F9FEF74AF9F22100F0C2F887
:10329000042100F07FF800F0C9F8C121FEF73FF9E2
:1032A0001721FEF7ECFE8821FEF78CF9202100F0B3
:1032B000C9F80A21FDF77CFE00F029F91221FEF77A
:1032C00024FFFEF781FF2021FEF729F9CC2100F031
:1032D0007DF800F0C3F80B21FEF721F90E2100F074
:1032E000E9F80D21FEF71BF91521FEF70EFFFEF799
:1032F000EDFE00F009F90B21FDF75AFE00F007F989
:103300001321FEF7DCFEFEF75FFF1B21FEF707F936
:10331000712100F0A3F800F0C7F80E2100F0CAF800
:103320001521FEF7FCF80C21FEF7F9F82A2100F030
:10333000EBF8012100F0E3F8DF21FEF7F0F82B2194
:1033400000F082F900F0DBF81F2100F079F9FDF7B9
:1033500078FE362100F033F8FDF72AFE00F0D7F8AA
:10336000FDF7A0FE2921FDF721FE142000F03AFC14
:103370002C2000F0D4F813BDBDF800002080ADF87B
:103380000010B4217047BDF800006080ADF8001057
:1033900013217047BDF800006080ADF80010402197
:1033A0007047BDF800006080ADF80010C021704784
:1033B000BDF800006080ADF800100A217047BDF82C
:1033C00000006080ADF8001011217047BDF80000CA
:1033D0006080ADF8001007217047BDF800006080E4
:1033E000ADF8001020217047BDF800006080ADF8F6
:1033F00000100821BDF8000070472321BDF800002F
:103400006080ADF800104521BDF800006080ADF887
:1034100000107047BDF800006080ADF800108021FA
:10342000BDF800002080ADF800107047BDF8000026
:103430006080ADF800102821BDF800006080ADF874
:1034400000107047BDF800006080ADF80010E0216A
:10345000BDF800006080ADF800107047BDF80000B6
:103460006080ADF800100621BDF800006080ADF866
:1034700000107047BDF800006080ADF80010BDF886
:1034800000006080ADF80010BDF800006080ADF86D
:103490000010BDF800006080ADF80010BDF800001D
:1034A0006080ADF800107047BDF800006080ADF896
:1034B00000100A21BDF800006080ADF800100F2157
:1034C000BDF800006080ADF800107047BDF8000046
:1034D0002080ADF80020BDF800006080ADF800202D
:1034E000BDF800006080ADF80020BDF800006080ED
:1034F0007047BDF800206280ADF800107047BDF83D
:1035000000002080ADF80020BDF800006080ADF81C
:103510000020BDF800006080ADF800107047ADF8E5
:103520000000BDF8001021807047BDF800106180D8
:10353000ADF800207047BDF800106180ADF80020A4
:10354000BDF800106180ADF8002070471CB5E22086
:10355000ADF800001D21394CFEF791FD0221FEF768
:1035600027FEE021FEF73CFE0A20BDF80020628025
:1035700000F038FBE021ADF800100321FEF7F0FD6C
:103580000C2000F02FFB0120ADF800000A2000F015
:10359000B6F8E620ADF800002F2000F0AAF8FF20D2
:1035A00000F0B2F8B02100F07CF80321FDF7B7FF7E
:1035B00040F21F3100F069F840F2DF11FDF7E0FF43
:1035C000B421FDF7ACFF0421FEF759FD40F21F4185
:1035D000FDF7D6FF2E2100F076F800F043F8FDF756
:1035E000E8FF0221ADF800104FF40371FEF7FDF87B
:1035F0001521FDF7C5FFFEF7CFFD0321FEF73FFDC7
:103600002921FDF78CFFD021FEF739FDFEF736FDAD
:10361000BE2100F02EF8FE2100F01DF800F053F856
:10362000B82100F011F8FEF72AFD0121FDF777FF20
:10363000BA21FEF7D5FD00F003F813BD7E00006C43
:10364000BDF8000060807047BDF800006080ADF8F4
:10365000001003217047BDF800006080ADF8001035
:1036600001217047BDF800006080ADF80010B62160
:103670007047BDF800006080ADF800100521BDF86E
:1036800000002080ADF800107047BDF80000608099
:10369000ADF800100121BDF800006080ADF8001009
:1036A0007047BDF800006080ADF800102021BDF823
:1036B00000002080ADF800100021BDF800006080FF
:1036C000ADF800107047BDF800006080ADF8001044
:1036D0000021BDF800006080ADF80010BDF80000CA
:1036E0006080ADF80010BDF800006080ADF80010FB
:1036F0007047BDF800102180ADF800007047BDF89C
:103700000010218000F06EBABDF800106180ADF8A5
:103710000000BDF800106180ADF80000704730B4C3
:10372000002513E050F8042BD30744BFA9F101038F
:103730009A18091F042942F8045BFAD213468C0731
:1037400044BF15809B1CC90748BF1D7050F8041B5F
:103750000029E7D130BC7047014648B1B0FA80F18A
:103760008840C91CC1F58461090501EBD0214005E1
:103770007047B1F5807F02D34FF0FF307047017082
:10378000012070470078401E8041C043C00F704741
:10379000B0B581EA030C0CF0004C40F2FF7515EA5D
:1037A00011541DBF15EA1357AC42AF4239E0E4197A
:1037B00023EA455343F48013C90241F0004141EA32
:1037C000505EC7021100A7FB020200284FF0000064
:1037D000EEFB01204FF00001E3FB072118BF42F090
:1037E0000102401800214941E3FB0E01A4F5806469
:1037F0000F0302D252004041494154F101046CDDF3
:10380000470872F1004250F1000051EB0451A1F55C
:1038100080115CBF41EA0C01B0BD4CEA05510020AB
:10382000B0BD05EA1357AC4214BFAF4241E050EAC5
:10383000410E1CBF52EA430E02E061460020B0BDBB
:1038400024423C441BD15FEA070EF6D0090302BFB5
:1038500001460020AEF1140EB1FA81F7AEEB070479
:1038600001FA07FE0C37C7F1200100FA07F7C8403C
:103870004EEA000E23EA455343F48013A2E733F0E7
:103880000043B3FA83F704BFB2FA82FE77440B3FDA
:10389000E41BB7F1200E2FBF02FA0EF3BB40C7F1B5
:1038A000200E22FA0EFE38BF43EA0E03BA40641C13
:1038B00082E750EA410E14BF52EA430E6FF0000156
:1038C0004FF4001717EB430F8ABF194617EB410F50
:1038D000B5E74CEA05510020B0BDD4F10104B4F1C4
:1038E00020070FDAC4F12007520828BF42F0010276
:1038F00010FA07F501FA07F7E1BF2A43E040384321
:10390000E1400FE0352C98DCC7F1200452EA400278
:1039100020FA07F218BF42F0010231FA07F0A14085
:103920000A43002172F1004250F1000051EB0C01FA
:10393000B0BD0268531C036011707047C1F30A5395
:1039400040F2FE329B1A14DDD3F120034FEAE172FC
:1039500008DDC90241EA505141F00040D8408018CA
:103960005040704703F2E13010B1D24382F0004082
:103970007047002070472E002DE9F84F0D460026B5
:103980007749784A0F23044601202F68B04000EAA7
:103990000708804540F0CA804FEA460C032707FA23
:1039A0000CF76FEA070E6F6807F00309B9F1010F12
:1039B0001CBF07F00307022F12D1A768D5F80C909F
:1039C0000EEA070709FA0CF949EA0707A7606768D2
:1039D00027EA00006F68C7F30017B74038436060FC
:1039E000B0002F7907F00307032F21D0E768D5F83F
:1039F00008900EEA070709FA0CF949EA0707E76099
:103A00002F7907F00307022F12D1F70804EB87077D
:103A100000F01C09D7F820A003FA09FB2AEA0B0AD8
:103A2000D5F810B00BFA09F949EA0A09C7F820904D
:103A300027680EEA070E2F7907F0030707FA0CF73D
:103A400047EA0E0727606F6817F4403F6ED00027E3
:103A500000974FEA960C176847F48047176000F00C
:103A60000C00176807F48047009703FA00FE009FD8
:103A70003D4F57F82C7027EA0E0E3C4FBC4208BF52
:103A8000002722D03A4FBC4208BF01271DD0394F32
:103A9000BC4208BF022718D0374FBC4208BF0327DB
:103AA00013D0364FBC4208BF04270ED0344FBC425F
:103AB00008BF052709D0334FBC4208BF062704D0F2
:103AC000314FBC420CBF0727082707FA00F0264FEA
:103AD00040EA0E0047F82C006FEA08000F6800EA81
:103AE000070C6F68FF0348BF48EA0C0CC1F800C020
:103AF0004F6800EA070C6F68BF0348BF48EA0C0C28
:103B0000C1F804C08F6800EA070C6F68FF0248BF65
:103B100048EA0C0CC1F808C0CF6800EA070C6868D6
:103B2000800248BF48EA0C0CC1F80CC0761C0F2E6E
:103B30007FF62AAFBDE8F18F02B9090481617047B1
:103B4000426901EA0203914341EA034181617047FE
:103B50000E4A136803421CBF106000F097BA70470A
:103B6000003C014044380240083801400000024057
:103B70000004024000080240000C02400010024015
:103B80000014024000180240001C0240143C014096
:103B900070B504000D46164601D1012070BD04F138
:103BA0004801487820B900220A70204600F05EFCE7
:103BB000206804F1080100F029F8A268206829466D
:103BC00000F04CF8236BA2686068314600F066F89C
:103BD0002168A06851F8202042F0010241F820201D
:103BE000002070BD38B5044600F0A2FC14F1010FAE
:103BF000054602D004480178641800F099FC401B87
:103C0000A042FAD331BD00BF8832002070B58C6865
:103C10000D6850F82560304B4A681E401643CB684B
:103C20000A6926431E434B6916438A691E43CB69C2
:103C300016430A6A1E434B6A16438A6A1E43CB6ABE
:103C40001643CA6B096B1E4316430E43082C08BF6C
:103C500046F0400640F82560002070BD70B5031D99
:103C6000001D53F822408D690B684E681D438B6818
:103C700045EA0615CE6845EA03250B69496945EA18
:103C800006455B1E45EA0355891E04F0404445EA9B
:103C900001652C4340F82240002070BD70B5B3F59B
:103CA000804F13D150F822500C4C0B684E682540C1
:103CB0001D438B68CC68896945EA061545EA0325EA
:103CC00045EA04450D4340F8225003E06FF070438D
:103CD00040F82230002070BD8000F0FF0000F0CFDF
:103CE0002DE9F841ADF5805DB7B000F027FC00F09C
:103CF0007DF900F03DFC00F0FBFC00F081FB00F0E2
:103D00005DFD00F085FD00F0F8FD00F0F1FE00F033
:103D10004BFF00F09FFF00F0ABFFFCF79EFD00F0B3
:103D2000C1FCDFF80415DFF804454FF47840086063
:103D30000421332001F085F8332001F09AF8606007
:103D4000332001F0A5F83220FFF74CFF41F2982014
:103D500025182946332000F0DDFFA06104F11C0185
:103D6000284601F02EF8A06142F2206141F69C72D3
:103D700000206518A61860803146332000F0D1FF7E
:103D800004F11C01304601F037FBFAEE000A84ED25
:103D9000020A70EE200A00F017F9304601F08CF8A4
:103DA0006088401C81B20229E5DD60804FF6FF701B
:103DB000FCF706FF4FF478400FF2AC41DFF8706477
:103DC00002902022019100922023F02228210A2033
:103DD000FCF77EFFEF2340F23F1200210020FCF7AA
:103DE00034FC0FF28C4002F02FFBAEA700F0F9F884
:103DF000010008BF0FF290401BD00FF298484046D8
:103E000002F022FB0FF29C4002F01EFB4FF48050A8
:103E1000009001AB00220121384603F04BFC70B941
:103E20000FF2904002F010FB00F0DBF820B90FF227
:103E3000904002F009FB07E00146404602E00146DF
:103E40000FF2884002F000FB0FF270510AA8202206
:103E500003F0DCFE02A80FF28451DFF8D8632022C1
:103E600003F0D4FE0A220AA92BA803F045F9C8B929
:103E7000304602F0E9FA02A803F0D4FE024601AB94
:103E800002A92BA803F0E1FA002807BF019906F167
:103E9000240001460FF2444002F0D6FA2BA803F0AA
:103EA000E2FB04E0014606F1540002F0CDFA0122E3
:103EB0000AA92BA803F020F900287AD106F17C008A
:103EC00002F0C2FA642112A803F0B6FE6B46632228
:103ED00012A92BA803F016FA50B9009906F1A40014
:103EE00002F0B2FA12A90FF2084002F0ADFA04E0B3
:103EF00001460FF2104002F0A7FA2BA803F0B3FB23
:103F00002078CD4FA0B16178002904BF387800280F
:103F10000ED101216170207006F1F80002F094FAD0
:103F200000F0C2F80020607006F5927002F08CFA82
:103F30006178002904BF3878002832D141F6181181
:103F400067183946332000F0ECFE0028A06136D413
:103F5000012804BF06F5A67002F076FA04F11C01F0
:103F6000384601F0FFF984ED030A04F11C013846DC
:103F700001F042FAFAEE000A70EE200A84ED020A1D
:103F8000C4ED040A00F020F8384600F095FF41F235
:103F9000842000F01FF841F28E2000F01BF803F09F
:103FA0006DFF0221A548FFF7CBFD0A20FFF71AFE9F
:103FB000A6E7014606F1CC0002F046FAA0E701466A
:103FC000D4A002F041FAECE72A4694ED050A04F188
:103FD0001C01704704F11C0301222946204401F012
:103FE00073BA01223946304603F055B880B592B015
:103FF000302106A803F020FE142101A803F01CFEC6
:10400000002000904FF480338D48016841F08051CA
:1040100001600021006800F08050009000988948FD
:104020000091026842F4804202600122006800F4BC
:104030008040009006A80099069202214FF4800269
:104040000C910D9219214FF4A8720E910F9202213A
:10405000072207931091119204F0AEF808B172B6DE
:10406000FEE702210291002203920F204FF4A0519B
:10407000019004914FF480520592052101A804F0AB
:1040800029FA08B172B6FEE713B000BD042800D0CB
:10409000704780B56C4802F0D7F96448012101707F
:1040A00001BD0000303A00002DE9F8436748684C34
:1040B0000588ADF5B05D05EB45098CB0C9F1040686
:1040C000478806F0030644F6425006EB0901ADF8B6
:1040D000040079430DF1060201F13600106000235F
:1040E000ADF80A30ADF80C300DF10E003622282361
:1040F00002600593069507970122ADF820200A91EA
:10410000002240F61331182309920B910C910D9265
:104110000E92ADF822300E2201A9201D03F076FD8B
:10412000282205A904F1120003F070FDD4F8002044
:104130007FA1501C20600FA804F0A6FA0A220FA944
:104140000DF5C06002F0D8FF010003D07CA002F0A2
:104150007BF955E06B463622211D00F07FF8040004
:1041600002D021467EA045E07F1E0FF2902808E095
:1041700036B16B463246414600F070F8040044D137
:104180007F1E002F45D42C46002522E0B9B2A8B2EC
:10419000FCF709F880B217A905EB450200F01F03F0
:1041A0001144C0F34512C2EB0222C00AC3EB032341
:1041B0004FF01F0CC0EB002093FBFCFC3F2392FB55
:1041C000F3F24A7081F800C01F2290FBF2F0887071
:1041D0006D1CA542DADB6B464A4617A900F03EF893
:1041E00025460400C4D0224639461A4802F02CF96C
:1041F0006AA0214602F028F90DF5C06003F033FAF9
:104200000DF5B05D0DB0BDE8F08322463946124889
:10421000ECE7002CECD10DF5C06003F0DEF90FA93E
:1042200057A002F011F9E7E76400002068000020C1
:1042300048450020101F0108AB700020000002401C
:104240004038024000700040C418010800000020FF
:104250002870002054230108782301080DF5C06060
:1042600003F0F3B872B6FEE753544D33320000004A
:104270004D6F756E74696E67207468652046415491
:1042800046532E2E2E0A00004D6F756E745F4F4BF5
:104290000A0000004D6F756E745F4572726F723A5E
:1042A00025640A004D4B46532D696E672E2E2E0A4B
:1042B000000000004D4B46535F4F4B0A00000000CA
:1042C0004D4F554E545F4F4B0A0000004D4B465327
:1042D0005F4552524F523A25640A00005772697482
:1042E00065206572726F723A2025640A0000000032
:1042F00046696C6520636F6E74656E743A20257331
:104300000A00000052656164206572726F723A2083
:1043100025640A004765744672616D654461746185
:10432000206661696C65643A2025640D0A0000000E
:10433000303A494D47253033642E424D500000003D
:104340004661696C656420746F206F70656E2042F1
:104350004D502066696C653A2025640D0A00000006
:10436000424D50206865616465722077726974659A
:10437000206661696C65643A2025640D0A000000BE
:1043800053617665642073637265656E20696D6143
:1043900067653A2025730D0A000000004661696CCC
:1043A000656420746F207361766520424D502066ED
:1043B000696C653A2025640D0A0000007465737409
:1043C0002E7478740000000000000000000000005F
:1043D00000000000000000000000000048656C6C58
:1043E0006F2C20464154465321000000000000007D
:1043F00000000000000000000000000000000000BD
:1044000000B587B01C220021684604F05DF9404ADF
:104410004048426000220261826102624FF0204106
:1044200001604FF48052826200210623C1600122A4
:104430008360009202920392102141610F231022A7
:10444000019304920021C1614162C1620163416331
:104450008163416411230022059306926946FFF7A8
:1044600097FB08B1FFF7FEFE07B000BD10B586B0A0
:1044700014220021684604F027F92749086800281B
:1044800034D101220A60059000222448016841F0DD
:10449000010101600221006800F0010005904FF465
:1044A000805405981E48019100F029F8FFF764FA3E
:1044B00002210191002202924FF6807000F018F85C
:1044C0001848FFF759FA02210191002202924CF29A
:1044D000337000F00DF81448FFF74EFA02210191F5
:1044E000002200F00CF81148FFF746FA06B010BDA4
:1044F0000321009003910C220492694670470292B6
:10450000032103910C220492009469467047000035
:10451000040100A0FC6E0020A0700020383802408A
:104520000014024000100240000C0240001802403B
:1045300001484068704700BF8832002080B50B48B2
:10454000016841F400710160026842F48062026017
:10455000016841F480710160032004F0CCF80F2061
:1045600004F01EF904F03CF9002002BD003C0240BA
:1045700038B586B01422002101A804F0A5F8002166
:104580005848594C594D0091026842F0800202602F
:104590000022016801F0800100F07FF843F0010380
:1045A0000360016801F0010100F077F843F0200397
:1045B0000360016801F0200100F06FF843F0100380
:1045C0000360016801F0100100F067F843F0020396
:1045D0000360016801F0020100F05FF843F0080396
:1045E0000360016801F0080100F057F843F004038C
:1045F0000360016801F0040100910099009202211A
:10460000036843F040030360006800F0400000903E
:1046100000982046FFF790FA00224FF40041284608
:10462000FFF78AFA01224FF400412046FFF784FA8F
:1046300001220292039248F20201019100220492A7
:1046400001A92046FFF798F90C204FF404110190BE
:1046500002910122039201A92046FFF78DF9012260
:10466000029203924FF4004101910022049201A9A9
:104670002846FFF781F900220021082004F048F8BD
:10468000082004F062F800220021092004F040F81C
:10469000092004F05AF807B030BD0091009900924B
:1046A0000368704710B586B00020009002220D48C4
:1046B0000D4C016841F0200101600123006800F009
:1046C00020000090204600990192029303930492E7
:1046D00001A9FFF751F9012202212046FFF72CFA28
:1046E00006B010BD30380240000002400004024015
:1046F0001FB510220021684603F0E6FF2A4C2B4824
:1047000020604FF480312A48A06200220120E0613D
:1047100060616160A2602261227684F82020E262FA
:10472000E26084F83020204604F076F808B1FFF704
:1047300099FD0020012100900191029069462046D8
:1047400004F01EF908B1FFF78DFD1FBD10B586B04E
:1047500004461422002101A803F0B6FF2168134883
:1047600081421FD1002213480092416941F48071B7
:104770004161416901F48071009100990092012129
:10478000036843F0010303600322006800F00100A6
:10479000009000980848019102920021039101A91C
:1047A000FFF7EAF806B010BD9C6F00200020014022
:1047B0000100000F303802400000024010B5104CDC
:1047C00010490022204604F081F908B1FFF74AFDA4
:1047D0000D49204604F08DF908B1FFF743FD0B4960
:1047E000204604F0B9FB08B1FFF73CFD204604F079
:1047F00091F918B1BDE81040FFF734BD10BD00BFFE
:104800008069002098320020E8320020D033002058
:1048100080B52848284901604FF482721021426017
:10482000C16100234FF400720A218360C3600361F9
:1048300043618261036243628362C16204F094FB5C
:1048400018B1BDE80140FFF70DBD01BD10B586B040
:1048500004461422002101A803F036FF21681648FF
:10486000814224D1002215480092016941F400419F
:104870000161016901F400410091009900924FF437
:10488000E051036843F0040303600222006800F073
:104890000400009000980A480191029200210391BF
:1048A000032206210591049201A9FFF765F806B0DD
:1048B00010BD0000506E0020003C00403038024027
:1048C00000080240002203E00000000000BF0122B7
:1048D0004FF400416648FFF72FB901B582B00020C0
:1048E00032218DF804000091012301AA02A9614838
:1048F00004F098FB9DF804000EBDE8E738B5FFF71B
:10490000E1FF9F20FFF7E9FF00F026F8044600F0E2
:1049100023F840EA042500F01FF80446FFF7D6FF0D
:1049200044EA052032BD80B5FFF7CCFF0620FFF733
:10493000D4FFBDE80140C9E710B5FFF7C3FF05206C
:10494000FFF7CBFF4C4C00F007F8C00701D5641E01
:10495000F9D1BDE81040B9E7FF20BEE770B50446C5
:104960000D461646FFF7DFFFFFF7ACFF0220FFF70B
:10497000B4FF200200F09CF8200400F099F8E0B2A7
:10498000FFF7ABFF002403E0285CFFF7A6FF641CE1
:10499000A0B2B042F8D3FFF799FFBDE87040CBE773
:1049A000F8B50D4605F0FF07C7F580771646BFB28C
:1049B000B7420446A8BF37463A4621462846FFF785
:1049C000CDFFB0B2B84209D03C447D19F61BB7B256
:1049D000B7F5807FC8BF4FF48077EDE7F1BD2DE9D3
:1049E000F0470D46C5F30B04C4F5805A90462F0BD3
:1049F0001FFA8AFAC2458146A8BFC2461F4E4FF42D
:104A000080523903304600F055F8002004E00119C7
:104A1000715CFF2906D1401C5045F8DB52462946FF
:104A200048460FE0384600F02BF8002004E019F863
:104A300000102218401CB1545045F8DB4FF480524E
:104A400039033046FFF7ACFF1FFA88F0504501D11B
:104A5000BDE8F087D1445544A8EB0A087F1C002428
:104A60001FFA88FABAF5805FC8BF4FF4805AC5E7CD
:104A700000000240506E0020A08601007855002002
:104A800010B50446FFF74FFFFFF71CFF2020FFF78C
:104A900024FF200500F00CF82407200EFFF71DFF6F
:104AA0000020FFF71AFFFFF711FFBDE8104043E7B2
:104AB000000E12E7F8B504460D461646FFF702FF52
:104AC0000320FFF70AFF2802FFF7F2FF2804FFF791
:104AD000EFFFE8B2FFF701FF002703E0FFF73CFF1D
:104AE000E0557F1CB742F9D3BDE8F140EEE6430044
:104AF00080B52948294901604FF4E13200230C2197
:104B000042608360C360036141618361C36104F0FB
:104B100023FC18B1BDE80140FFF7A4BB01BD10B5EF
:104B200086B004461422002101A803F0CDFD2168BF
:104B30001A48814223D1002219480092416941F06C
:104B400020014161416901F020010091009900922A
:104B5000C021036843F0040303600222006800F0F0
:104B60000400009000980F480191029200210391E7
:104B7000032208210591049201A9FEF7FDFE06B06B
:104B800010BD01B54FF0FF3301226946024804F021
:104B90001EFC009802BD0000E46F002000140140DC
:104BA0003038024000080240254A2648264980B590
:104BB000426000234FF4804201608360C360026161
:104BC00043618361C361036204F006FD18B1BDE86F
:104BD0000140FFF747BB01BD10B586B00446142263
:104BE000002101A803F070FD21681748814225D1FA
:104BF0000022164C00921222206840F00200206031
:104C0000216801F0020100914FF4406100981048C2
:104C10000191029200210391032204210591049243
:104C200001A9FEF7A9FE00200090216941F480014E
:104C30002161206900F480000090009806B010BD4A
:104C400040420F00A86E002000580040303802405B
:104C50000004024010B5034C0348211D05F0FCF888
:104C6000207010BD90700020F033002000207047AD
:104C7000FFF79ABFFEB514464FF6FF776200029722
:104C800092B21D46019200950A46410010231F482A
:104C900004F0E6FD002648B14FF0FF30FEBDA81934
:104CA000A95D4078A855AA19B61C5170B6EB440FFF
:104CB000F5DB0020FEBDF8B584B00D461646310A7E
:104CC0008DF80C1004464FF6FF71029102200190FE
:104CD00003AF61008DF80D60009710232A46C9B21A
:104CE0000A4804F031FD10B14FF0FF300CE0084FDE
:104CF0003B46012229462046FFF7BCFF3888B042D8
:104D000014BF6FF00100002005B0F0BDA86E0020B8
:104D1000A87000200B464FF450724FF41051FFF76B
:104D2000A9BF7CB505460C46002600F043F80028D4
:104D30003FD1BDF8000010F00800F6D011E0234686
:104D40004FF450724FF480612846FFF793FF80BB09
:104D500000F030F868BBBDF80000761C00F00800D9
:104D6000F6B268B1052E0BDA30224FF40041284626
:104D7000FFF7A1FF10F1010FE1D14FF0FF3076BD39
:104D8000052E02DB6FF0070076BD0DF10203012254
:104D900048F20D012846FFF76DFF04F5D062BDF81B
:104DA00002101180BDF8001001F00101518000B91E
:104DB000084676BD6B4601224FF400412846FFF7B6
:104DC00059BF38B504460D4600F063FC294620461D
:104DD00000F070FCB4F96000A8822946204600F07B
:104DE000CFFC2946204600F0E3FC2946204600F08F
:104DF000E7FC2946204600F0FDFC2946204601F04C
:104E000039F92946204600F079FD2946204600F070
:104E1000C9FE2946204600F05FFF2946204601F0E2
:104E20004FF82946204601F0CDF929462046BDE835
:104E3000344001F033BA45EA010231462046FFF71B
:104E40003ABF7CB500F00CF848B9BDF800104FF639
:104E50007F40ED01014005F46075FFF7ECFF76BD82
:104E60000D4648F20D0604466B4601223146FFF717
:104E700001BF80B500F006F818B9BDF80000C0F316
:104E8000C21002BD6B46012248F20D01FFF7F2BECF
:104E900038B500F009F830B9BDF8002042F480526E
:104EA0002946FFF7CBFF32BD48F20D0504466B469D
:104EB00001222946FFF7DEBE2DE9F84F07461446CA
:104EC0002DED108B07F5CA628AB0B2F832B00E46EB
:104ED000B0EE40BAB0EE608A00F044FAF0EE408ADC
:104EE0003146384600F088FAF0EE40AA9FED8E9ADF
:104EF00078EE090A60EEA00A3AEE890A60EEA00A8E
:104F000020EE000AB0EE602A00EE402A82EE0B2A64
:104F100096F84C0F70EEC2BAFEF71EFC00F036FE9B
:104F200000F01AFA0CEE100A41F24D2006F12808A2
:104F3000305CFEF711FC00F029FE00F00DFA0CEEDB
:104F4000900A96F84A06FEF707FC00F01FFE00F0F4
:104F500003FA0DEE100A98ED010ADFED740AB7EEC0
:104F6000001A0DF1180A00EE201AF7EE001A4FF0A1
:104F70007E50C1EE811ACAF80400CDED061AF7EE94
:104F8000001AB8F91C0098ED021A014600EE101A3A
:104F9000F8EEC00AB7EE000A00EE810A8AED020AB6
:104FA000DFEDE29AB8F91E1098ED031A081A00EE28
:104FB000900AF8EEE00A40EE811A21EE800A07F529
:104FC000C2608DED090A07F5CA62818800EE101AE9
:104FD000B8EE400AB6F914100292B4EE690AF1EE86
:104FE00010FA01EE101AA4BFDFEDD10A30EE200A4C
:104FF000B8EEC11A0088158EC1EE00DA00EE100A74
:105000000298B8EE400A8DED000AE946018800EEEC
:10501000101A6D09B8EE400A05F0800589ED010A05
:10502000002009EB800191ED000AB4EE690AF1EE6F
:1050300010FA05DBDFEDBE0A30EE200A81ED000A32
:1050400009EB8002401C92ED000A20EE2D0A012897
:1050500081ED000AE5DD9FEDB70A41F2582138EEF7
:1050600080AAD6ED070A705ED6ED081AB7EE000AE0
:105070000AEE200ABBEE091A7AEE81AAF7EE000AC0
:1050800001EE100A4AEEA10AB8EEC11A21EE201A6A
:10509000DDED001A41EE401A7218CDED001AB2F99A
:1050A0000200D9ED011A01EE100A96F8250085429A
:1050B000B8EEC11A04D0701890ED012A31EE021A30
:1050C00061EE200A40EEC01A7318C9ED011A03936D
:1050D0000597049400273811791107EBD06007EB8E
:1050E000916240119211A0EB4200BA1CFB1C5110BE
:1050F00002EB91725910921003EB91737C1CA2EB9E
:10510000A302631004EB937102EBA102791007EB89
:1051100091734100A2EBA302C1F1010112FB01F165
:1051200035B902460AE000BF3393884300002042AD
:1051300007EBD7725210A7EB42024240029B5B8EF4
:1051400052B29A4240F0E080059A32F8173006EBEE
:10515000470206EB070EF7EE001A00EE103AB2F91E
:105160004C36B8EE400AB4EE690AF1EE10FAA4BF6C
:10517000DFED6F0A30EE200A00EE903AF319F8EEF8
:10518000E00A93F94CCC9EF94D3F01EE10CAB8EEFF
:10519000C11A81EE0C1A41EE2A1A60EEA11A00EE35
:1051A000903AF8EEE00A96F82530C0EEAC0AB7EE79
:1051B000001A20EE2D0A00EE8A1A9D4201EEC10A65
:1051C00014D00006C015401E00EE900A039890ED22
:1051D000031AF8EEE00A00EE810A49B200EE901AD6
:1051E000F8EEE00A90ED021A00EEC10A09EB8B001E
:1051F000D6ED060A90ED001AB2F84A0000EEC10A98
:1052000080EE0BEA9FED4C0A00EE900A2DEE000AAC
:10521000F8EE600AC0EE200A98ED001AB7EE000A18
:105220000AEE810A60EE80EA2EEEAE0AF0EE4E1A29
:1052300020EE2E0A4EEEAB1A20EE210A00F0A2FC60
:1052400000F07CF804F00CFEB0EE408A98ED020A03
:10525000B7EE00FAF0EE608A00EE49FA00F092FC38
:1052600053EC182BFEF794FA04F07CFE00EE100AC3
:105270000FEE2E0A00F082FC00F060F804F0F0FD62
:1052800000F04CF804F06EFEB8F91AC000EE90CAB7
:1052900000EE100A00F058F848BF00200DD4B8F90D
:1052A0001C0000F04FF848BF012006D4B8F91E00DA
:1052B00000F048F84CBF0220032006EB40020AEB46
:1052C000800106EB8000D1ED000AB2F94010D0ED6C
:1052D0000B1A01EE101AB8EEC11A30EE410AB7EE01
:1052E000001A6EEEA00A00EE211A20EE810A00F0EC
:1052F00045FC00F023F804F0B3FD00F00FF804F0D3
:1053000031FE049941F827002746B7F5407FFFF6A4
:10531000E2AE0AB0BDEC108BBDE8F18F53EC102B60
:105320004FF0C040DFF8681B04F050BE01FEFF469E
:10533000000080C7333353C0BD37863541EC100BB6
:1053400004F08EBD00EE900AF8EEE00AB4EE600ABA
:10535000F1EE10FA7047000051EC100B04F002BEA1
:105360000000000038B500F254602DED048B0C46AF
:105370000188858D94F8240000EE101AB8EE408A5A
:10538000DFED4E0A00F07EFDA4BF9FED4D1A38EE12
:10539000018AFEF7E1F900F0F9FBC5F38125B0EED3
:1053A000409AF0EE609A284604F0CEFE00F0EEFB44
:1053B00051EC190B53EC102B04F0D8FE04F0D2FD85
:1053C000B4F9001000EE100AB4F9020000EE900AE1
:1053D00020EE080AF8EEE00A01EE101A30EE600A3C
:1053E000B8EEC11A80EE011ADFEDDE1ABDEC048BB7
:1053F00031EE210A31BD000038B52DED068B054692
:105400000C46FFF7AFFFB5F84006B0EE408A00EE5D
:10541000100AF8EE408AB5F800069FED280AF4EE6F
:10542000408A01EE100AF1EE10FAB8EE419AA4BFDC
:10543000DFED230A78EEA08AB4EE409AF1EE10FA7E
:10544000A4BF9FED1F2A39EE029A9FEDC41B9FED6A
:10545000CA0B04F0B2FFB0EE40AA94ED040A08EEC5
:10546000809A88EE890AF0EE60AA00F08BFB53EC7C
:105470001A2BFEF78DF904F075FDDFED120A78EEB8
:10548000200A94ED011AF7EE001A00EE100AA08926
:1054900040EE811A00EE900A80EE210AF8EE600AD2
:1054A00070EE600A94ED020A80EE800AB3EE091AEB
:1054B000BDEC068B30EE010A31BD000001FEFF4657
:1054C000000080C7333353C02DE9F84F2DED048B16
:1054D00084B00026B6EE008A6C4681460D4617461B
:1054E0009A461EE039F81600291F2B1D01EB800299
:1054F00003EB800192ED000AD1ED000A70EE200A64
:1055000005EB800060EE880AC0ED000A07E09BED25
:10551000010ADDED000A70EE200ACBED000A761CD0
:10552000F6B239F816204FF6FF70824200F0AE80D6
:10553000D104090EA2EB4110012FC0B252D105EBEC
:105540008202B1B918B9D5F884001060E7E71F28C6
:1055500004D105F18400416F1160E0E792ED1F0A6C
:10556000D2ED210A70EE200A60EE880AC2ED000A30
:10557000D5E717290FD110B9D5F8040BE5E71F2897
:1055800008BF05F60430E6D0A2F1840090ED000AD1
:10559000D0ED020AE6E7A2F1840110B991ED020A0A
:1055A000DEE71F2891ED000A08D1D2ED1F0A30EE88
:1055B000200A20EE080A82ED000AB0E78DED000A0D
:1055C000886860606846D16FA1600421D2F88420A9
:1055D000E26000F0F0FE39F8160005EB800181ED85
:1055E000000A9CE720B905EB82004168016096E75C
:1055F000012818BF1E283FF475AF1F2804D105EB02
:10560000820050F8041CF1E7901E514680B200F071
:1056100006FF002807D139F81600801C514680B2D9
:1056200000F0FDFE00287FF45DAF39F8160005EBB1
:10563000800B9BED010ADBED020A70EE600AABF114
:105640000808CDED000A98ED010AD8ED000A70EEC9
:10565000608AC4ED018A18EE900A04F0B7FE21F0CA
:10566000004141EC190B009804F0B0FE21F000431A
:10567000024651EC190B04F0CDFEBFF448AF98ED93
:10568000010A30EE280A8BED000A48E704B000F06A
:10569000D6BCB0F86600020A802AA8BFA2F58072C4
:1056A00000F0FF00520140010A80A0F580404880D0
:1056B00070470000F8B50E4600F162012DED028B37
:1056C0004A88008C0F88930A00EE103AB8EE400A20
:1056D00000F04AF8A4BF9FED7F1A30EE010ADFED1B
:1056E0007E0A20EE208AC2F3090200EE102AF8EEAC
:1056F000C08A9FED7A1AF4EE418AF1EE10FAA4BF47
:10570000DFED770A78EEA08A00F4704004F01CFD0B
:1057100004460D469FED731B9FED170B04F04DFEE5
:1057200053EC102B2046294604F020FD0022DFF820
:10573000603B04F04BFC04F015FCF4EE000A00EEB4
:10574000100A68EEA00A86ED018AC6ED020AB7814A
:1057500086ED040ABDEC028BF1BD000000000000E4
:105760000000324033335340DFED620AB4EE600A8A
:10577000F1EE10FA70470000000000000000004049
:1057800090F8780000EE100AB8EEC00ADFED570A74
:10579000B4EE600AF1EE10FAA4BF9FED551A30EE98
:1057A000010ADFED550A20EE200A81ED060A704756
:1057B000B0F87000000B00F0030081F8240070477F
:1057C000B0F87800000A00EE100AB8EE400ADFEDEB
:1057D000470AB4EE600AF1EE10FAA4BF9FED441A36
:1057E00030EE010ADFEDE40A20EE200A81ED0A0A1C
:1057F0007047000030B500F17A020A209388C3F3A5
:10580000013343436FF0270401F14200A1F8404007
:105810000025058094882406240F44809488C4F3CE
:10582000032484804488B0F9045014FB03F44480BA
:1058300013FB05F303FA84F34FF4C874C480838028
:105840000123107900F00F00083003FA00F01388EC
:1058500003F0FF041B0A00EE104A00EE903AB8EE87
:10586000C00AF8EE600A81ED0B0AC1ED0C0A5288FD
:1058700002F0FF0300EE103A120AB8EEC00A00EE82
:10588000902A81ED0D0AF8EE600AC1ED0E0A0022A1
:1058900000EE100A01EB82009FED141AD0ED0B0A06
:1058A000F4EE410AF1EE10FA05DBDFED111A70EEAD
:1058B000A10AC0ED0B0AF8EEC00A90ED0B1A521CBB
:1058C000C1EE200A042AC0ED0B0AE3DBDFF8C809A9
:1058D000C86330BD000080C2000080390180FF43F2
:1058E000000080C40000000000002C400100FE42C7
:1058F000000080C30100F8410000003D2DE9F84F91
:105900002DED028B00F14002ADF54F6D1488B2F819
:1059100002900B4604F00F012706250A240B1E34C3
:105920003F0F05F00F0AE4B2002600EB46050DF12B
:10593000100EB5F844B0B2000BF00F0C4EF822C0B8
:10594000CBF3031B0DF1100C0CEB820E761CCEF882
:1059500004B0B5F844B0CBF3032BCEF808B00DF18A
:10596000100BB5F844500BEB82022D0B062ED560C0
:10597000DBDB002204AE04AD55F82250082DA4BF95
:10598000103D46F82250521C182AF4DB002200EB8E
:1059900042060DF1700EB6F850B095000BF00F0CEA
:1059A0004EF825C0CBF3031B0DF1700C0CEB850EEC
:1059B000521CCEF804B0B6F850B0CBF3032BCEF89F
:1059C00008B00DF1700BB6F850600BEB8505360B87
:1059D000082AEE60DBDB024600201CAE1CAD55F849
:1059E0002050082DA4BF103D46F82050401C202810
:1059F000F4DB184641F250260644002500960DF1CE
:105A0000F0080026039202900191039806EB451BD3
:105A100000EB4B01DFED600AB1F88020C2F3051006
:105A200000EE100A3CA800EB8B0100F039FA05DB10
:105A30009FED5A1A30EE010A81ED000A2046FDF76B
:105A40008BFE00F0A3F804A81CAA50F8251052F809
:105A5000260001FA0AF14944B840B0EE408AF0EE5F
:105A6000608A4118019800EE101A0121814008EB6C
:105A70008B0000EE901AB8EEC00AF8EEE00A90ED46
:105A8000001A00EE810A00F07DF853EC182B04F0A8
:105A90006DFB04F067FA0099D1ED000A91ED011A4F
:105AA00000EE100A029870EE810A90ED061A60EE80
:105AB000810AF6EE001A00EEE10A9FED392A08EBA2
:105AC0008B00761C82EE000A202E80ED000A9CDB03
:105AD0006D1C039A02980199182D92DB9DED3C0AEA
