:020000040800F2
:10000000609C00209D010008A5580008F33C0008F2
:1000100041580008A50D0008AD940008000000003C
:10002000000000000000000000000000616B0008FC
:10003000A90D0008000000004F5B0008696E000871
:10004000B7010008B7010008B7010008B7010008B0
:10005000B7010008B7010008B7010008B7010008A0
:100060004912000853120008B7010008B701000840
:10007000B7010008B7010008B7010008B701000880
:10008000B7010008B7010008B7010008B701000870
:10009000B7010008B7010008B7010008B701000860
:1000A000B7010008B7010008B7010008B701000850
:1000B000B7010008B7010008B7010008B701000840
:1000C000B7010008B7010008B7010008B701000830
:1000D000B7010008B7010008B7010008B701000820
:1000E000B7010008B7010008B7010008B701000810
:1000F000B7010008B7010008B7010008B701000800
:10010000B7010008B7010008B7010008B7010008EF
:10011000B7010008B7010008B7010008B7010008DF
:10012000B7010008B7010008B7010008B7010008CF
:10013000B7010008B7010008B7010008B7010008BF
:10014000B7010008B7010008B7010008A958000866
:10015000B7010008B7010008B7010008B70100089F
:10016000B7010008B7010008B7010008B70100088F
:10017000B7010008B7010008B7010008000000003F
:10018000B7010008B7010008DFF80CD000F0CCFC84
:1001900000480047B5050108609C002006488047DC
:1001A00006480047FEE7FEE7FEE7FEE7FEE7FEE75C
:1001B000FEE7FEE7FEE7FEE7256F0008890100087D
:1001C0002DE9F05F0546002092469B46884606468C
:1001D000814640241BE0284641464746224600F01F
:1001E00076FB53465A46C01A914110D31146184621
:1001F000224600F05DFB2D1A67EB01084F462246B0
:100200000120002100F054FB17EB00094E41201E95
:10021000A4F10104DFDC484631462A464346BDE8E6
:10022000F09F40EA01039B0703D009E008C9121FB1
:1002300008C0042AFAD203E011F8013B00F8013BA0
:10024000521EF9D27047D2B201E000F8012B491ECC
:10025000FBD270470022F6E710B513460A46044663
:100260001946FFF7F0FF204610BD421C10F8011B95
:100270000029FBD1801A7047F0B480EA0102D40F44
:100280004200B2EB410F02D20246084611464A0034
:1002900042D0C30DDDB2C1F3C752AD1A202D35DAFD
:1002A000C1F3160141F4000204B15242C5F1200627
:1002B00002FA06F12A411044B3EBD05F23D0C4B157
:1002C000012DA0EBC35009DCF0BC4FF0004202EA64
:1002D000C352DBB200F5000000F024BB400000F187
:1002E000807000EBC350A0F1807040EAD1704900EB
:1002F00009E0490841EAC071A0EBC35000F50000D5
:10030000400800EBC350F0BC00F003BB6142012287
:1003100002EB4101001BF6E7F0BC704781F00041A1
:10032000AAE780F00040A7E780EA010210B502F0DA
:100330000043400022D04A001FD0010E01EB1261A1
:10034000C0F35600C2F3560240F4000042F400022B
:10035000A0FB022000047F39140400D0401C50EAA6
:10036000124001D44000491EC2B20C0604EBD0106A
:10037000401C4008802A02D003E0002010BD20F07D
:100380000100002900DA0020184310BD30B480EAD3
:10039000010202F0004530F0004221F0004013D08D
:1003A00090B1C30DD40DC2F31601C0F31600E41AC8
:1003B00041F4000140F400027D34914201D3641CF9
:1003C00000E04900002C02DA30BC002070474FF4F6
:1003D00000000023914201D3891A034340084FEAE9
:1003E0004101F7D151B1914202D14FF0004105E0F6
:1003F00002D24FF0010101E06FF0010103EBC450A4
:10040000284430BC00F085BA2DE9FE4F804681EAD1
:100410000300C00F0C46009021F0004123F000457E
:10042000B8EB0200A94105D24046214690461C4641
:100430000B46024623F00040104347D0270DC7F378
:100440000A00C3F30A510290401A019040286BDA67
:10045000C3F3130040F4801B0098924620B10023A0
:10046000D2EB030A63EB0B0B01985946C0F1400233
:10047000504600F01DFA06460D4650465946019A70
:1004800000F035FA10EB08006141002487EA1152B0
:1004900084EAE7731A4340D0009A62B3019A012AB2
:1004A0004FEA075215DC001B61EB02014FF00042DE
:1004B00002EA0752CDE90042001C41F580113246A4
:1004C0002B4600F09BFA03B0BDE8F08F4046214672
:1004D000F9E7001B61EB0201001C41F580130018D5
:1004E0005B412018A2F5001747EB030140EAD570E5
:1004F000B6196D4111E06D084FEA360645EAC07540
:100500004FEA0752001B61EB0201001C41F580110C
:1005100049084FEA30000019514132462B4603B0DA
:10052000BDE8F04F00F05BBA0098012240000023C4
:10053000D0EB020263EBE073009821464FEAE074CF
:10054000B8EB000061EB0401E9E783F000435BE7EF
:1005500081F0004158E72DE9FE4F81EA030404F0E1
:10056000004421F0004100944FF0000B23F00043C1
:1005700050EA01045ED052EA03045BD0C3F30A548C
:10058000C1F30A552C44A4F2F3340194A0FB0254A5
:10059000C1F3130141F48011C3F3130343F4801337
:1005A00001FB024400FB034E840A970A44EA81548B
:1005B00047EA8357A4FB076802958D0A05FB078568
:1005C0004FEA932C04FB0C542705029D4FEA065872
:1005D00047EA1637B5EB08056EEB070C870E920E4F
:1005E00047EA811742EA8312A7FB0201B6EB0B012F
:1005F00064EB00042B0D43EA0C335E1844EB1C50F3
:10060000DA465146E7FB0201C5F313044FEA0B3308
:1006100043EA14534FEA0432019C43EA0603A4F16F
:100620000C040294009CCDE900B400F0E7F903B09B
:10063000BDE8F08F00200146F9E72DE9F04D81EA91
:10064000030404F0004B21F0004514464FF0000A6B
:1006500023F0004150EA050220D054EA01021DD0E7
:10066000C5F30A570246C5F31303C1F31300C1F3E0
:100670000A5640F4801543F48013A7EB0608101BBC
:10068000D64608F2FD3873EB050002D308F10108E5
:1006900001E092185B41B8F1000F03DA0020014637
:1006A000BDE8F08D00204FF48011064684460EE030
:1006B000171B73EB050705D3121B63EB05030643FA
:1006C0004CEA010C49084FEA300092185B4150EAAD
:1006D0000107EDD152EA030012D082EA040083EA56
:1006E0000501084305D0101BAB4106D201220023AF
:1006F00006E000224FF0004302E06FF001025310C9
:100700001AEB06004CEB085110EB0A0041EB0B0111
:10071000BDE8F04D00F063B9C10F80EAE070084415
:10072000CA079623002100F0FDB896230022114647
:1007300000F0F8B80EB5C10F80EAE0700844CA07AF
:10074000002140F233438DE80E000A460B4600F0CC
:1007500055F903B000BD0EB540F2334102910021BE
:10076000CDE900110A460B4600F048F903B000BD80
:1007700000F0004220F00040C10DC0F3160040F42C
:1007800000007F2901DA00207047962903DCC1F1BF
:100790009601C84001E096398840002AF4D04042D2
:1007A000704720F00040C10DC0F3160040F4000077
:1007B0007F2901DA00207047962903DCC1F19601F8
:1007C000C8407047963988407047C1F30A5210B547
:1007D000C1F3130140F2FF3341F480119A4201DA70
:1007E000002010BD40F233439A42A2F2334203DCB0
:1007F000524200F06CF810BD904010BD00F0004275
:1008000030F000400AD0C10D01F56071C0F3160050
:1008100042EA0151C20840071143704700200146D7
:10082000704701F0004330B421F0004150EA01026A
:1008300006D00A0DA2F56072C1F31301002A02DC92
:1008400030BC00207047440F44EAC104C100E018E6
:1008500030BC00EBC25000F05CB80000002801DBA7
:10086000C0F10040002901DBC1F100418142704725
:10087000002801DBC0F10040002901DBC1F100418B
:100880008842704730B50B460146002020220124E3
:1008900009E021FA02F59D4205D303FA02F5491B4E
:1008A00004FA02F52844151EA2F10102F1DC30BD64
:1008B000202A04DB203A00FA02F100207047914020
:1008C000C2F1200320FA03F3194390407047202A15
:1008D00004DB203A21FA02F00021704721FA02F3EA
:1008E000D040C2F120029140084319467047202AA7
:1008F00006DBCB17203A41FA02F043EAE07306E048
:1009000041FA02F3D040C2F1200291400843194657
:1009100070470029A8BF7047401C490008BF20F05D
:100920000100704710B4B0FA80FC00FA0CF050EAF5
:10093000010404BF10BC704749B1CCF1200421FA76
:1009400004F411FA0CF118BF012121430843A3EB71
:100950000C01CB1D4FEA00614FEA102042BF00207E
:1009600010BC704700EBC35010440029A4BF10BC5A
:100970007047401C490008BF20F0010010BC7047C0
:10098000F0B4002802DCF0BC00207047C0F3C7516F
:10099000C0F3160040F40000CA0701D14000491E10
:1009A0003F2202EB6105002211464FF4000626FAB1
:1009B00001F31344D418844201D8001B1A464000A6
:1009C000491C1729F3DD5100814202D24FF0FF315B
:1009D00000E0002102EBC550F0BCFFF79ABF10B554
:1009E000141E73F1000408DA401C41F10001921852
:1009F0005B411A4301D120F0010010BD2DE9F04DFB
:100A000092469B4611B1B1FA81F202E0B0FA80F24F
:100A100020329046FFF74CFF04460F4640EA0A009A
:100A200041EA0B0153465A46084313D0114653EA94
:100A3000010019D0C8F140025046FFF748FF0546B3
:100A40000E46504659464246FFF732FF084305D04E
:100A5000012004E020463946BDE8F08D0020054322
:100A600046EAE0762C4337430A986305E40AA0EB94
:100A700008000022FD0A44EA47540A3002D500204B
:100A80000146E9E7010510196941DDE9084500194A
:100A90006941BDE8F04DA2E770B521F00043034382
:100AA0000CD0C1F30A550024D5EB040564EB040314
:100AB000D617AD1AB34102DB0020014670BD2018E5
:100AC00041EB025170BDC1F30A52C1F3130140F270
:100AD000FF3341F480119A4202DA00200146704748
:100AE00040F233439A42A2F2334202DC5242FFF711
:100AF000EEBEFFF7DDBE000030B5041E71F100044C
:100B000004DB4FF00044404264EB0101141E73F11A
:100B1000000405DB1C464FF00043524263EB040324
:100B2000994208BF904230BD064C074D06E0E06890
:100B300040F0010394E8070098471034AC42F6D324
:100B4000FFF726FBC8550108E85501082DE9F04DCF
:100B500000231A461B1A8A4103DB00200146BDE828
:100B6000F08DC1F30A52C1F3130141F480154FF027
:100B7000000BD10702D100186D41521E0027044618
:100B800040F2FF11384601EB620A3E4680460246BB
:100B900000204FF48011FFF79AFEC2197141BB1873
:100BA00046EB0100B4EB030C75EB000C04D3E41A24
:100BB00065EB000517460E46241908F101006D414A
:100BC00080463428E3DDF91946EB0600091BA841ED
:100BD00003D24FF0FF32134601E0002213461BEB15
:100BE000070046EB0A51BDE8F04DFFF7F8BE70B5BF
:100BF0008C1810F8015B15F0070301D110F8013BC8
:100C00002A1106D110F8012B03E010F8016B01F84E
:100C1000016B5B1EF9D12B0705D40023521E0DD4A6
:100C200001F8013BFAE710F8013BCB1A921C03E0F4
:100C300013F8015B01F8015B521EF9D5A142D8D32C
:100C4000002070BD55494A6822F440324A604A6823
:100C500043681A434A600268526822F4807203684B
:100C60005A6002685368026943EA022203685A60C4
:100C70000268526822F0407203685A600268526843
:100C800083681A4303685A600268926822F400621B
:100C900003689A6002689268C3681A4303689A609E
:100CA0003F4B826A9A4218D00268926822F07062C2
:100CB00003689A6002689268836A1A4303689A60BC
:100CC0000268926822F0405203689A600268926853
:100CD000C36A1A4303689A600BE00268926822F0C4
:100CE000706203689A600268926822F0405203685A
:100CF0009A600268926822F0020203689A600268B1
:100D00009368027E43EA420203689A602022125CE2
:100D1000A2B10268526842F4006203685A60026835
:100D2000526822F4604203685A6002685368426A5B
:100D3000521E43EA423203685A6005E00268526874
:100D400022F4006203685A600268D26A22F47002D8
:100D50000368DA620268D36A828B521E43EA025247
:100D60000368DA620268926822F4007203689A608B
:100D70000268936890F8302043EA422203689A6040
:100D80000268926822F4806203689A60026893683D
:100D9000426943EA822203689A6070470023014057
:100DA0000100000F00BFFEE7704700002DE9F04F83
:100DB0008DB07E4E7E4D4FF0000A4FF0000B0020AC
:100DC0000C90002712E07B4850F8278031464046BF
:100DD000FFF74EFD01D24646BA4629464046FFF788
:100DE0003DFD01D24546BB46781C87B2B7F5407F32
:100DF000E9DB29463046FFF731FD04D16E4928462C
:100E0000FFF73AFA064629463046FFF787FA0746C3
:100E100039466A48FFF7BAFA814669494846FFF7FA
:100E200027FD01D2DFF898914846FFF7BAFC84B25B
:100E3000EF2340F23F12002108460FF067F92346E6
:100E40002A4605210CA800F055F92B4605220A2157
:100E50000CA8009400F014F92B46052214210CA8CC
:100E6000009400F00DF92B462B221E210CA80094B3
:100E700000F006F92B46052274210CA8009400F01E
:100E8000FFF8782000BF0746FF2305223946A0203F
:100E900000F0D4F82B462F227E210CA8009400F0FD
:100EA000EFF82B460522DC210CA8009400F0E8F8AE
:100EB0002B460522E6210CA8009400F0E1F8002161
:100EC000504600F085F94FF4FC61584600F080F977
:100ED0003C480068FFF792FC07463A460B463AA1A9
:100EE0000AA809F0E7FCFE20102339A2DC210090BB
:100EF00004200FF098FAFE2010230AAADC210090AB
:100F00001C200FF090FA2846FFF778FC07463A4677
:100F10000B4630A107A809F0CDFCFE2010232FA21C
:100F2000DC21009050200FF07EFAFE20102307AA4B
:100F3000DC21009076200FF076FA3046FFF75EFC59
:100F400007463A460B4623A104A809F0B3FCFE204D
:100F5000102324A2DC210090AA200FF064FAFE20C6
:100F6000102304AADC210090D0200FF05CFA1F4867
:100F70000068FFF743FC07463A460B4615A101A857
:100F800009F098FCFE20102319A2DC210090FA2021
:100F90000FF049FAFE20102301AADC2100904FF443
:100FA0008B700FF040FA0DB0BDE8F08F00007AC4EE
:100FB00000007A4498340020CDCCCC3D00201E4562
:100FC00000FF7F4718000020252E32660000000039
:100FD000653D0000252E3166000000004D696E3A27
:100FE000000000004D61783A000000000C00002075
:100FF00054613A002DE9F04105460C46174600BF02
:1010000000BF2646611C88B200BF80463A46314682
:1010100028460BF065FF691C88B23A4631460BF052
:101020005FFF3A46414628460BF05AFF691C88B2DA
:101030003A4641460BF054FFBDE8F0812DE9F041FE
:1010400005460E4614469846281B87B206E04246DF
:10105000314638460BF044FF781C87B22819B84255
:10106000F5DA301B87B206E04246394628460BF0D7
:1010700037FF781C87B23019B842F5DABDE8F08145
:101080002DE9F04704460E4617469846DDF82090B5
:1010900000250CE006EB450291B24B464246206823
:1010A00000F009F82068C4302060681C85B2BD4299
:1010B000F0DBBDE8F0872DE9F04705460F46904686
:1010C00099460026002411E04B4642462946304608
:1010D00000F06EF982464FF6FF7101EA4400524675
:1010E0003946FFF787FFC636601C84B2A02CEBDBC5
:1010F000BDE8F0872DE9FF4F83B0054689460026FD
:101100005EE04FF6FF7000EA4604286802904FF058
:101110000008002712E04046DDE90523029900F0AF
:1011200047F982464FF6FF7101EA470052462146D1
:10113000FFF760FF08F1C608781C87B2102FEADBC2
:1011400000271AE0214830F81700019007F120002D
:1011500080B2009000BF00BFA246611C88B200BFF1
:1011600083465146DDE900020BF0BAFE5946DDE93F
:1011700000020BF0B5FE781C87B2FF2FE2DD46F6C9
:101180009A688F2715E04046DDE90523029900F0B3
:101190000FF98246A7F18F014FF48F7202EB4101E4
:1011A00088B252462146FFF725FF08F1C608781C91
:1011B00087B2A02FE7DB2868C4302860701C86B295
:1011C0004E459EDB07B0BDE8F08F00006452010879
:1011D0002DE9F041044688461F2C01DCBDE8F08172
:1011E0002046E11704EBD1614911A4EB4111144AE7
:1011F000515C4E00E11704EBD1614911114A515C79
:101200004D0000BF00BFF01F87B206E042462946EE
:1012100038460BF065FE781C87B2F01D8742F5DD7D
:10122000E81F87B206E04246394630460BF058FECA
:10123000781C87B2E81D8742F5DD00BFCEE70000CD
:10124000645401088454010810B5042000F05AFBCE
:1012500010BD10B5082000F055FB10BD72B600BFE0
:10126000FEE730B504460D4600222946204600F030
:1012700001F830BDF0B50346012500241148407A3D
:1012800001281CDA00200F4E767A0E4FB8553846EA
:10129000467A001D40F82630001F467A08308255F5
:1012A0003E46707A461C7E72044604F13000087097
:1012B0003A2048702F2088700020C87000252846EA
:1012C000F0BD0000508C002070B504461D46002380
:1012D000B5F5804F13D154F822300C480340D1E9C2
:1012E000000640EA06108E6840EA06208E8940EA31
:1012F00006408E693043034344F8223003E06FF028
:10130000704044F82200002070BD00000000F0CFC3
:1013100010B503460022086853F820201248024006
:10132000D1E901042043CC6820430C6920434C6977
:1013300020438C692043CC6920430C6A20434C6ACB
:1013400020438C6A2043CC6A2043CC6B20430C6B37
:10135000204302438868082801D142F0400208680F
:1013600043F82020002010BD8000F0FF30B5034678
:101370000024501C53F8204004F04044D1E90005FB
:1013800040EA05108D6840EA05208D8940EA054550
:10139000088A401E45EA0055087D801E45EA006027
:1013A0008D6928430443501C43F82040002030BD81
:1013B0002DE9F04F91B005460E4690469946C5F38B
:1013C00087201090C6F3872AC5F3090BC6F30900DE
:1013D0000F90CBF580600E900F98C0F580600D9057
:1013E0001098C0F11F0000EB4A14012C7EDB04F1C1
:1013F0002000B0F5407F79DA401EB0F5407FFADA80
:101400000F98FFF792F908905846FFF78EF906906B
:1014100004F11F0005F0AEFB05900699FEF784FF6E
:1014200007900899FEF780FF0A900D98FFF77DF965
:1014300006905846FFF779F90490601E05F09AFB74
:1014400003900499FEF770FF05900699FEF76CFF74
:1014500008900F98FFF769F904900E98FFF765F967
:10146000029004F1200005F085FB01900299FEF73F
:101470005BFF03900499FEF757FF06900D98FFF766
:1014800054F904900E98FFF750F90290204605F0A9
:1014900071FB01900299FEF747FF03900499FEF754
:1014A00043FF05900699FEF7E7FE07900899FEF7BF
:1014B000E3FE09900A99FEF7DFFE0C904FF093418E
:1014C0000C98FEF763FF0B904846FFF72EF9414654
:1014D00008900B98FEF722FF07900899FEF724FF6B
:1014E0000C490990FEF752FF0A9000E00EE0FFF76A
:1014F0003FF90746002F00DA0027FF2F00DDFF2706
:10150000054830F8170011B0BDE8F08F0248008898
:10151000F9E70000000020416452010870B50A4854
:101520000468001D0568001D0668344454B1082293
:101530000649204602F05FFE042204491031284685
:1015400002F059FE70BD0000107AFF1F62000020FB
:1015500038B502460020009000BF92F83C000128F8
:1015600001D1022038BD012082F83C0000BF08688C
:10157000092816D91068C0680C780A3C04EB4405A9
:101580000724AC40A0431468E0600C780A3C04EBEC
:1015900044048868A0401468E46820431468E0604C
:1015A00013E0106800690C7804EB44050724AC4094
:1015B000A043146820610C7804EB44048868A040C0
:1015C000146824692043146820614868072817D2EA
:1015D0001068406B0C79641E04EB84051F24AC403A
:1015E000A04314686063088880B20C79641E04EB21
:1015F0008404A0401468646B20431468606331E085
:1016000048680D2817D21068006B0C79E41F04EBB2
:1016100084051F24AC40A04314682063088880B26E
:101620000C79E41F04EB8404A0401468246B20436D
:101630001468206316E01068C06A0C790D3C04EB56
:1016400084051F24AC40A0431468E062088880B27F
:101650000C790D3C04EB8404A0401468E46A204338
:101660001468E062194B1A4C1068A04206D1086851
:10167000122803D1586840F480005860144C106858
:10168000A0421CD10868102802D00868112816D181
:10169000586840F400005860086810280FD10D48C1
:1016A00000680D4CB0FBF4F000EB800040000090AF
:1016B00002E00098401E009000980028F9D100BF79
:1016C000002082F83C0000BF00BF4BE70023014030
:1016D00000200140AC00002040420F0070B50446DD
:1016E00000250CB9012070BD1549A06A884200D0C0
:1016F00000BF206C30B9204600F024F80020606460
:1017000084F83C00206C00F0100088B9206C20F4B4
:10171000885040F0020020642046FFF793FA002032
:101720006064206C20F0020040F00100206400E0C2
:10173000012500BF002084F83C0000BF2846D2E706
:101740000100000F10B586B00446142101A8FEF771
:1017500081FD1949206888422BD100BF00200090EC
:101760001648006840F48070144908600846006814
:1017700000F48070009000BF00BF00BF0020009008
:101780000E481438006840F001000C491439086014
:101790000846006800F00100009000BF00BF012073
:1017A0000190032002900020039001A9044800F05A
:1017B000B7F806B010BD00000020014044380240D8
:1017C0000000024070B5044600F0B2F90646254616
:1017D000681C10B104480078054400BF00F0A8F967
:1017E000801BA842FAD370BDA800002000B587B0C6
:1017F000142102A8FEF72EFD2A48006808B107B0A0
:1018000000BD01202749086000BF00200190264844
:10181000006840F00100244908600846006800F0B4
:101820000100019000BF00BF8814029002200390C5
:1018300000200490032005900C20069002A91B486C
:1018400000F06EF84FF680700290022003900020A6
:101850000490032005900C20069002A9144800F083
:101860005FF84CF233700290022003900020049045
:10187000032005900C20069002A90E4800F050F8B5
:101880004FF4805002900220039000200490032027
:1018900005900C20069002A9074800F041F800BF0F
:1018A000ADE7000024000020383802400014024058
:1018B00000100240000C02400018024010B504461F
:1018C000042C05D103A008F0E5FF01200C490870A5
:1018D00010BD000050413220627574746F6E20702C
:1018E0007265737365642C207265717565737469B4
:1018F0006E6720636170747572652E2E2E0D0A005E
:101900000000002010B5044604480068204020B1C3
:10191000024804602046FFF7D1FF10BD143C01408F
:10192000F8B502460B460025002400200021D5E032
:10193000012606FA01F51E6806EA0504AC4274D1D8
:101940001E7906F00306012E04D01E7906F0030668
:10195000022E13D190684F000326BE40B0434F00C3
:10196000DE68BE4030439060506801268E40B04330
:101970001E79C6F300168E40304350601E7906F083
:101980000306032E09D0D0684F000326BE40B043A3
:101990004F009E68BE403043D0601E7906F00306BB
:1019A000022E13D1CF0802F1200656F827004E0769
:1019B000F70E0F26BE40B0434F07FF0E1E69BE4014
:1019C0003043CF0802F1200646F8270010684F0088
:1019D0000326BE40B0431E7906F003064F00BE400A
:1019E000304310605E6806F44036002E75D000BFAC
:1019F000002600963B4E366846F48046394F3E60DE
:101A00003E46366806F48046009600BF00BF364E5C
:101A10008F0856F827008E07370F0F26BE40B043B9
:101A2000324EB24202D1002624E056E0304EB2429D
:101A300001D101261EE02F4EB24201D1022619E04B
:101A40002D4EB24201D1032614E02C4EB24201D1F8
:101A500004260FE02A4EB24201D105260AE0294EA3
:101A6000B24201D1062605E0274EB24201D1072637
:101A700000E008268F073F0FBE4030431A4E8F0804
:101A800046F82700214E3068A0435E6806F4803691
:101A900006B120431D4E3060361D3068A0435E689D
:101AA00006F4003606B12043184E361D3060361D50
:101AB0003068A0435E6806F4801606B12043134EDA
:101AC00008363060361D3068A0435E6806F40016A4
:101AD00006B120430D4E0C363060491C1029FFF42E
:101AE00027AFF8BD443802400838014000000240EA
:101AF0000004024000080240000C024000100240B6
:101B00000014024000180240001C0240003C01404A
:101B100010B5426921EA020302EA010443EA0443E0
:101B2000836110BD0AB1816101E00B0483617047DC
:101B30000148006870470000A000002070B504460E
:101B40000CB9012070BD94F83D0028B9002084F83C
:101B50003C00204600F006FB242084F83D0020686D
:101B6000006820F00100216808602068006840F4E7
:101B70000040216808602068006820F40040216867
:101B8000086001F001FB05465C496068884206D8A0
:101B90005B48854201D2012007E0002005E059485A
:101BA000854201D2012000E00020012800D1C9E7D0
:101BB0005548B5FBF0F62068406820F03F00304300
:101BC000216848604D496068884201D8701C07E070
:101BD0004FF4967070434FF47A71B0FBF1F0401CF3
:101BE0002168096A21F03F010843216808624349DE
:101BF0006068884214D8681E61684900B0FBF1F043
:101C0000401CC0F30B00042801D204203DE0681EF4
:101C100061684900B0FBF1F0401CC0F30B0034E0F8
:101C2000A06838B9681E616801EB4101B0FBF1F0B2
:101C3000401C0AE0681E616801EBC10202EB011161
:101C4000B0FBF1F0401C40F48040C0F30B0008B939
:101C500001201AE0A06848B9681E616801EB4101E3
:101C6000B0FBF1F0401CC0F30B000CE0681E616893
:101C700001EBC10202EB0111B0FBF1F0401CC0F31B
:101C80000B0040F4804040F400402168C9694CF6E4
:101C9000FF72914308432168C861D4E907010843F2
:101CA0002168096821F0C001084321680860D4E96F
:101CB000031008432168896848F2FF3291430843C2
:101CC00021688860D4E9050108432168C96821F0CA
:101CD000FF0108432168C8602068006840F00100E7
:101CE0002168086000202064202084F83D00002046
:101CF000206384F83E0000BF24E70000A0860100B6
:101D000080841E0000093D0040420F002DE9FC5F69
:101D100004460F4690469946DDE90CAB0E9EFFF750
:101D200007FF054694F83D00202870D119230122B1
:101D3000B0492046009502F04BF910B10220BDE8F1
:101D4000FC9F00BF94F83C00012801D10220F6E777
:101D5000012084F83C0000BF2068006800F001000A
:101D600028B92068006840F00100216808602068F8
:101D7000006820F4006021680860222084F83D009B
:101D8000402084F83E0000202064C4F824A0A4F879
:101D90002AB0608D20859848E0624B46424639461D
:101DA0002046CDE9006501F0C5FF08B10120C6E776
:101DB000208D88B900BF0020019020684069019003
:101DC00020688069019000BF00BF2068006840F46F
:101DD00000702168086040E0208D012818D120683B
:101DE000006820F480602168086000BF0020019036
:101DF00020684069019020688069019000BF00BFA1
:101E00002068006840F400702168086025E0EFE079
:101E1000208D022816D12068006820F48060216897
:101E200008602068006840F400602168086000BF16
:101E3000002001902068406901902068806901902D
:101E400000BF0AE000BF00200190206840690190B7
:101E500020688069019000BF00BFBAE0208D032890
:101E60007ED8208D012815D12A463146204602F021
:101E700054F908B1012062E720680069616A0870BE
:101E8000606A401C6062208D401E2085608D401E6F
:101E900060859EE0208D02282AD1334600225749D2
:101EA0002046009502F094F808B1012047E7206829
:101EB000006840F400702168086020680069616A69
:101EC0000870606A401C6062208D401E2085608D15
:101ED000401E608520680069616A0870606A401C65
:101EE0006062208D401E2085608D401E608570E000
:101EF0003346002241492046009502F069F808B1B6
:101F000001201CE72068006820F4806021680860D8
:101F100020680069616A0870606A401C6062208DF8
:101F2000401E2085608D401E608533460022334967
:101F30002046009502F04CF808B10120FFE6206829
:101F4000006840F400702168086020680069616AD8
:101F50000870606A401C6062208D401E208500E091
:101F600010E0608D401E608520680069616A08701D
:101F7000606A401C6062208D401E2085608D401E7E
:101F8000608526E02A463146204602F0C6F808B1B0
:101F90000120D4E620680069616A0870606A401C0C
:101FA0006062208D401E2085608D401E6085206807
:101FB0004069C0F3800060B120680069616A087000
:101FC000606A401C6062208D401E2085608D401E2E
:101FD0006085208D00287FF441AF202084F83D00EB
:101FE000002084F83E0000BF84F83C0000BFA6E655
:101FF0000220A4E6020010000000FFFF0400010020
:102000002DE9FC5F04460F4690469946DDE90CAB8E
:102010000E9EFFF78DFD054694F83D0020287DD1EA
:10202000192301224D492046009501F0D1FF10B13E
:102030000220BDE8FC9F00BF94F83C00012801D1BC
:102040000220F6E7012084F83C0000BF2068006809
:1020500000F0010028B92068006840F00100216804
:1020600008602068006820F4006021680860212072
:1020700084F83D00402084F83E0000202064C4F82D
:1020800024A0A4F82AB0608D20853548E0624B4634
:10209000424639462046CDE9006501F0FBFE08B115
:1020A0000120C6E731E02A463146204602F075F8A5
:1020B00050B1206C042805D12068006840F40070FD
:1020C000216808600120B4E7606A0078216808612F
:1020D000606A401C6062208D401E2085608D401E1D
:1020E000608520684069C0F3800070B1208D60B1C8
:1020F000606A007821680861606A401C6062208D17
:10210000401E2085608D401E6085208D0028CAD12C
:102110002A463146204601F02DFF00E01CE050B178
:10212000206C042805D12068006840F40070216804
:10213000086001207DE72068006840F40070216895
:102140000860202084F83D00002084F83E0000BF95
:1021500084F83C0000BF6CE702206AE70200100030
:102160000000FFFF10B586B00446142101A8FEF759
:1021700071F81B492068884230D100BF00200090D0
:102180001848006840F002001649086008460068D8
:1021900000F00200009000BF00BF4FF440600190CB
:1021A0001220029000200390032004900420059048
:1021B00001A90D48FFF7B4FB00BF002000900948BB
:1021C0001030006840F4800006491031086008466D
:1021D000006800F48000009000BF00BF06B010BD92
:1021E00000580040303802400004024003480068B4
:1021F000034909780844014908607047A00000209D
:10220000A800002010B50D48006840F400700B498C
:1022100008600846006840F480600860084600686E
:1022200040F480700860032000F0A2F80F2000F056
:1022300007F800F02BF8002010BD0000003C024021
:1022400070B504460E4800784FF47A71B1FBF0F097
:102250000C490968B1FBF0F5284601F049FC08B1CA
:10226000012070BD102C07D200222146501E00F024
:1022700041F80548046001E00120F2E70020F0E7A2
:10228000A8000020AC000020A400002008B500BF7A
:10229000002000900E48006840F480400C4908601F
:1022A0000846006800F48040009000BF00BF00BFF7
:1022B00000200090081F006840F08050091F08604F
:1022C0000846006800F08050009000BF00BF08BDC5
:1022D0004438024001460846002809DB00F01F038D
:1022E00001229A4043099B0003F1E023C3F8002137
:1022F00000BF70472DE9F05F80460D461646002767
:1023000008F000FB074639462A46334601F007002D
:10231000C0F1070ABAF1040F02D94FF0040A01E034
:10232000C0F1070AD14600F1040ABAF1070F02D240
:102330004FF0000A01E0A0F1030AD4464FF0010A71
:102340000AFA09FAAAF1010A0AEA020A0AFA0CFAD6
:102350004FF0010B0BFA0CFBABF1010B0BEA030B7B
:102360004AEA0B042146404608F0D4FABDE8F09F43
:1023700000BF00F00702064B19684FF6FF03194033
:10238000044B0B4343EA0221014B196000BF704725
:102390000CED00E00000FA0570470246106841624B
:1023A00000207047F0B5034615461868446A21B905
:1023B00044EA05401E68B06219E01868806A04EBC0
:1023C0001044002208E0186800F5827050F82200DE
:1023D00004EB1044501CC2B2481E9042F3D844EAA9
:1023E0000547186800F582704E1E40F826700020E0
:1023F000F0BD10B50446D4F8040405F093FA10BDFE
:1024000070B504460D46C5EBC50304F13C0101EB74
:102410008301CA682946D4F8040405F0CBF970BDDD
:1024200070B504460D46C5EBC50304F5FE7101EB1E
:102430008301CA682946D4F8040405F02CFA70BD5B
:1024400010B50446D4F8040405F06FFA10BD70B559
:1024500004460E4606F0800080280AD106F00F00E0
:10246000C0EBC00104F13C0000EB81050120687065
:1024700009E006F00F00C0EBC00104F5FE7000EBB0
:1024800081050020687006F00F00287000BF94F8E6
:10249000BC03012801D1022070BD012084F8BC03D7
:1024A00000BF2946206806F0DDF800BF002084F850
:1024B000BC0300BF00BFEFE770B504460E4606F050
:1024C0000F006168884201D9012070BD06F08000CC
:1024D00080280AD106F00F00C0EBC00104F13C00D7
:1024E00000EB81050120687009E006F00F00C0EBE9
:1024F000C00104F5FE7000EB81050020687000202B
:10250000A87006F00F00287000BF94F8BC030128E3
:1025100001D10220D9E7012084F8BC0300BF29467D
:10252000206806F085FB00BF002084F8BC0300BFD4
:1025300000BFCAE770B504460D4600BF94F8BC035F
:10254000012801D1022070BD012084F8BC0300BF26
:1025500005F08000802805D105F00F01206806F005
:10256000BDFD02E0206806F0A1FD00BF002084F858
:10257000BC0300BF00BFE6E7024601F00F00C0EB5E
:10258000C00302F5FE7000EB8300806970472DE9FF
:10259000F04705460E4690461F464FF0000906F0EC
:1025A000800080280AD106F00F00C0EBC00105F1C1
:1025B0003C0000EB81040120607009E006F00F0090
:1025C000C0EBC00105F5FE7000EB810400206070D7
:1025D00006F00F002070C4F80880E770607808B13A
:1025E0002078E080022F01D10020207100BF95F8F3
:1025F000BC03012802D10220BDE8F087012085F844
:10260000BC0300BF2146286805F044FF00BF00203E
:1026100085F8BC0300BF4846EEE72DE9F0410446CB
:102620000E461746984606F00F00C0EBC00104F5B1
:10263000FE7000EB8105EF60C5F814800020A861F2
:10264000687006F00F0028702069012800D12F6102
:1026500006F00F0028B9227C2946206806F0C4F94C
:1026600004E0227C2946206806F076FB0020BDE8C5
:10267000F08170B504460D4605F00F006168884290
:1026800001D9012070BD05F0800080280AD105F035
:102690000F00C0EBC00104F13C0000EB81060120FB
:1026A000707007E0C5EBC50104F5FE7000EB810614
:1026B000002070700120B07005F00F00307000BF76
:1026C00094F8BC03012801D10220DBE7012084F843
:1026D000BC0300BF3146206806F0F1FA05F00F0098
:1026E00028B9217C04F57172206806F069FA00BFF0
:1026F000002084F8BC0300BF00BFC3E72DE9F04110
:1027000004460E461746984606F00F00C0EBC0017F
:1027100004F13C0000EB8105EF60C5F81480002057
:10272000A8610120687006F00F0028702069012858
:1027300000D12F6106F00F0028B9227C29462068BD
:1027400006F052F904E0227C2946206806F004FBDA
:102750000020BDE8F0812DE9FE4F0446206802907C
:10276000029D206806F0E7FC00287DD1206806F075
:1027700021FD08B9BDE8FE8F206806F01BFD00F0C2
:102780000200022805D12068406900F0020021689B
:102790004861206806F00EFD00F01000102846D1B8
:1027A0002068806920F01000216888610298D0F8C4
:1027B000209009F00F00C0EBC00104F5FE7000EBA3
:1027C000810AC9F3434002281AD147F6F07009EA9A
:1027D000000030B3C9F30A12DAF80C10029806F0C0
:1027E000EEFCC9F30A11DAF80C000844CAF80C0030
:1027F000C9F30A11DAF818000844CAF8180010E002
:10280000C9F3434006280CD1082204F571710298DF
:1028100006F0D5FCC9F30A11DAF818000844CAF822
:1028200018002068806940F01000216888612068E5
:1028300006F0C0FC00F40020B0F5002F52D10026B5
:10284000206806F087FC834649E00BF00100E8B3FE
:10285000F1B2206806F0A1FC804608F0010058B1F2
:10286000012105F5306000E021E200EB46108160B7
:102870003146204603F052F808F00800082809D134
:10288000082105F5306000EB461081603146204696
:1028900003F012F808F01000102805D1102105F5FA
:1028A000306000EB4610816008F02000202805D140
:1028B000202105F5306000EB4610816008F40050DF
:1028C000B0F5005F08D14FF4005100E004E005F5D9
:1028D000306000EB46108160761C4FEA5B0BBBF169
:1028E000000FB2D1206806F065FC00F48020B0F53E
:1028F000802F7ED1206806F023FC8346002683E0EB
:102900000BF0010000287CD0F1B2206806F02CFC0E
:10291000804608F00100F0B306F00F010120884066
:10292000019040F634004159019821EA000040F638
:1029300034014851012105F5106000EB461081601B
:102940002069012824D1C6EBC60104F13C0000EB4C
:102950008100C6EBC602C16804F13C0000EB8200B6
:1029600080680144C6EBC60204F13C0000EB820023
:10297000C1606EB9C6EBC60104F13C0000EB8100FA
:10298000406928B904F571720121206806F018F930
:10299000F1B2204600E001E0FFF732FD08F0080048
:1029A000082805D1082105F5106000EB461081606C
:1029B00008F01000102805D1102105F5106000EB7B
:1029C0004610816008F04000402805D1402105F5FF
:1029D000106000EB4610816008F00200022805D16B
:1029E000022105F5106000EB4610816008F08000C0
:1029F00001E00DE005E0802803D13146204603F0D8
:102A00004BF8761C4FEA5B0BBBF1000F7FF478AFFD
:102A1000206806F0CFFB00F00040B0F1004F1CD161
:102A200040F60400405920F0010140F604004151F5
:102A300094F8F403012807D1002084F8F40300215E
:102A40002046FFF7A9FC02E0204600F063FA206868
:102A5000406900F0004021684861206806F0AAFB48
:102A600000F40060B0F5006F0ED140F60800405948
:102A700000F0010010B1204600F0A4FA206840697F
:102A800000F4006021684861206806F093FB00F4C0
:102A90008050B0F5805F7DD140F60400405920F0B1
:102AA000010140F6040041511021206806F016FB98
:102AB00000273EE04FF67F3105F5106000EB471030
:102AC000816005F5106000EB4710006820F40011EC
:102AD00005F5106000EB4710016005F5106000EB94
:102AE0004710006840F0006105F5106000EB4710EA
:102AF00001604FF67F3105F5306000EB47108160D3
:102B000005F5306000EB4710006820F4001105F572
:102B1000306000EB4710016005F5306000EB4710B6
:102B2000006840F0006105F5306000EB471001607F
:102B30007F1C6068B842BDD840F61C00405940F088
:102B4000011140F61C004151206B70B1D5F884088A
:102B500040F00B01C5F8841840F64400405940F09D
:102B60000B0140F6440041510FE040F6140040597B
:102B700042F22B01084340F614014851081F405906
:102B800040F00B014FF401604151D5F8000820F4EA
:102B9000FE6000E00DE0C5F80008217C04F57172CC
:102BA000206806F00DF82068406900F48050216824
:102BB0004861206806F0FEFA00F40050B0F5005FAE
:102BC00017D1206805F0CEFC206806F0A1FAE0607D
:102BD00000F0D4FA0090227B2068009906F072FB86
:102BE000204600F07FF92068406900F40050216819
:102BF0004861206806F0DEFA00F00800082808D1D5
:102C0000204600F08EF92068406900F00800216835
:102C10004861206806F0CEFA00F48010B0F5801FFD
:102C20000AD100263146204600F043F8206840696A
:102C300000F4801021684861206806F0BBFA00F4B7
:102C40000010B0F5001F0AD100263146204600F0E2
:102C500039F82068406900F4001021684861206854
:102C600006F0A8FA00F08040B0F1804F08D120466D
:102C7000FFF7BFFB2068406900F080402168486191
:102C8000206806F097FA00F0040004280FD12068AD
:102C9000D0F8049009F00400042802D12046FFF780
:102CA000CFFB2068406840EA09002168486000BF07
:102CB00060E570B504460D462946D4F8040404F0D6
:102CC000B1FE70BD70B504460D462946D4F8040423
:102CD00004F0C0FE70BD70B58AB0044614B901207E
:102CE0000AB070BD266894F8BD0328B9002084F8A6
:102CF000BC03204600F0A2F8032084F8BD03F06B6B
:102D000000F4807008B900212161206805F064FE9C
:102D1000282204F110016846FDF783FA94E80F00B9
:102D200005F034FC20B1022084F8BD030120D7E770
:102D30000021206806F073FA002531E00121C5EB7F
:102D4000C50204F13C0000EB82004170C5EBC501F7
:102D500004F13C0000F82150C5EBC50100EB8100F7
:102D6000C5800021C5EBC50204F13C0000EB8200E8
:102D7000C170C5EBC50204F13C0000EB820081602C
:102D8000C5EBC50204F13C0000EB8200C160C5EB5D
:102D9000C50204F13C0000EB82004161681CC5B231
:102DA0006068A842CAD800252AE00021C5EBC50208
:102DB00004F5FE7000EB82004170C5EBC50104F51F
:102DC000FE7000F821500021C5EBC50200EB820027
:102DD000C170C5EBC50204F5FE7000EB8200816096
:102DE000C5EBC50204F5FE7000EB8200C160C5EBC7
:102DF000C50204F5FE7000EB82004161681CC5B29B
:102E00006068A842D1D8282204F110016846FDF775
:102E100008FA94E80F0005F0EFFC20B1022084F8D6
:102E2000BD0301205CE7002084F83800012084F80D
:102E3000BD03206805F0CEFC002051E710B586B038
:102E40000446142101A8FDF705FA2068B0F1A04F4F
:102E500042D100BF002000902048006840F00100EF
:102E60001E4908600846006800F00100009000BF9D
:102E700000BF4FF4C0500190022002900020039048
:102E8000032004900A20059001A91548FEF748FD8B
:102E900000BF1248001D006840F080000F49091D66
:102EA000086000BF002000900C481430006840F417
:102EB00080400A49143108600846006800F48040E8
:102EC000009000BF00BF00BF002211464320FFF763
:102ED00011FA4320FFF7FEF906B010BD303802406A
:102EE0000000024070B504460125E06808B90025DD
:102EF00006E0E068022801D1012501E0FEF7AEF905
:102F00002946D4F8040404F044FED4F8040404F080
:102F1000E9FD70BD10B50446D4F8040404F018FEB1
:102F200010BD10B50446D4F8040404F01CFE10BD16
:102F300070B504460D4600BF94F8BC03012801D1CA
:102F4000022070BD012084F8BC0300BF84F8385013
:102F50002946206806F097F900BF002084F8BC03DA
:102F600000BF00BFEDE710B5044604F57171D4F859
:102F7000040404F025FE10BD70B50446256800BFAA
:102F800094F8BC03012801D1022070BD012084F80F
:102F9000BC0300BFA06A012806D1A069012803D0A4
:102FA000A86B40F48030A863206806F077F82068AA
:102FB00005F0FEFB00BF002084F8BC0300BF00BF8B
:102FC000E3E7000010B50446D4F8040404F055FE0D
:102FD0002068D0F8000E40F001002168C1F8000E12
:102FE000206A28B10348006840F0060001490860E3
:102FF00010BD000010ED00E070B504460D460CB9A0
:10300000012070BD5848006800F00700A84209D2AE
:1030100055490D700846006800F00700A84201D02D
:103020000120EEE7207800F0020002281DD1207870
:1030300000F00400042805D14C48006840F4E0503A
:103040004A490860207800F00800082805D1474860
:10305000006840F46040454908604448006820F03A
:10306000F000A168084341490860207800F00100A1
:10307000A8B36068012807D13C4808380068C0F34D
:103080004040B8B90120BCE76068022802D06068FF
:10309000032807D1354808380068C0F3406048B9B4
:1030A0000120AEE7314808380068C0F3400008B995
:1030B0000120A6E72D48006820F00300616808435E
:1030C0002A490860FEF734FD064609E0FEF730FDA8
:1030D000801B41F28831884202D9032091E707E042
:1030E0002248006800F00C006168B0EB810FEDD160
:1030F0001D48006800F00700A84209D91A490D7060
:103100000846006800F00700A84201D0012078E7D7
:10311000207800F00400042807D11448006820F447
:10312000E050E168084311490860207800F0080089
:10313000082808D10D48006820F46040216940EA61
:10314000C1000A49086000F03FF808490968C1F366
:103150000311074A515CC8400649086006480068E8
:10316000FFF76EF800204CE7003C024008380240B0
:10317000031A0108AC000020A400002001480068E8
:1031800070470000AC00002000B5FFF7F7FF0449CE
:103190000968C1F38221034A515CC84000BD0000A8
:1031A00008380240131A010800B5FFF7E7FF044989
:1031B0000968C1F34231034A515CC84000BD0000B8
:1031C00008380240131A01082DE9F04700240025B1
:1031D0000026A1462548006800F00C0020B1042814
:1031E00005D008283AD105E0DFF8849039E0DFF80F
:1031F000849036E01D48001F006800F03F041B4823
:10320000001F006800F4800078B11A481749091FB0
:103210000968C1F38811A0FB017001462246002312
:103220003846FCF7CDFF05460EE011480F49091F4F
:103230000968C1F38811A0FB0170014622460023F2
:103240003846FCF7BDFF05460848001F0068C0F37C
:103250000140401C4600B5FBF6F902E0DFF8109093
:1032600000BF00BF4846BDE8F087000008380240B4
:103270000024F40040787D01F8B504460CB9012023
:10328000F8BD207800F00100002874D0F9480068EB
:1032900000F00C0004280DD0F648006800F00C0087
:1032A000082813D1F348001F006800F48000B0F52F
:1032B000800F0BD1EF4808380068C0F34040002869
:1032C00059D06068002856D10120D9E700BF606856
:1032D000B0F5803F08D1E7480838006840F48030F6
:1032E000E449083908601EE06068B0F5A02F0DD1F0
:1032F000E0480838006840F48020DE49083908605A
:103300000846006840F4803008600CE0D94808386E
:10331000006820F48030D749083908600846006802
:1033200020F48020086000BF606890B1FEF700FCC8
:10333000054606E0FEF7FCFB401B642801D903208C
:103340009EE7CC4808380068C0F340400028F1D020
:1033500011E0FEF7EDFB054606E0FEF7E9FB401B3A
:10336000642801D903208BE7C24808380068C0F3FD
:1033700040400028F1D1207800F0020002285FD1FF
:10338000BC48006800F00C0058B1BA48006800F072
:103390000C0008281CD1B748001F006800F480000A
:1033A000B0B9B44808380068C0F3400020B1E06804
:1033B000012801D0012063E7AE480838006820F0FA
:1033C000F800216940EAC100AA490839086037E0DD
:1033D000E06800B30120A8490860FEF7A9FB054694
:1033E00006E0FEF7A5FB401B022801D9032047E7B2
:1033F000A04808380068C0F340000028F1D09D487C
:103400000838006820F0F800216940EAC1009949B5
:103410000839086014E0002097490860FEF788FB2F
:10342000054606E0FEF784FB401B022801D9032075
:1034300026E7904808380068C0F340000028F1D122
:10344000207800F0080008282CD16069A8B101207C
:103450008A490860FEF76CFB054606E0FEF768FB4C
:10346000401B022801D903200AE782486C3000681B
:10347000C0F340000028F1D014E000207F4908602C
:10348000FEF756FB054606E0FEF752FB401B0228FE
:1034900001D90320F4E677486C300068C0F340009F
:1034A0000028F1D1207800F00400042870D1002712
:1034B00070483830006800F0805090B900BF00209C
:1034C00000906C483830006840F0805069493831CD
:1034D00008600846006800F08050009000BF00BF00
:1034E00001276748006800F48070B0B9644800683C
:1034F00040F4807062490860FEF71AFB054606E05A
:10350000FEF716FB401B022801D90320B8E65C48F1
:10351000006800F480700028F2D000BFA068012885
:1035200008D154486830006840F0010051496831C2
:1035300008601DE0A06805280DD14E48683000687D
:1035400040F004004B49683108600846006840F0CC
:10355000010008600CE047486830006820F0010076
:103560004449683108600846006820F0040008609B
:1035700000BFA068A8B1FEF7DBFA054609E0FEF738
:10358000D7FA401B41F28831884202D9032077E6FE
:1035900026E0384868300068C0F340000028EED0CC
:1035A00013E0FEF7C5FA054608E0FEF7C1FA401B36
:1035B00041F28831884201D9032061E62D48683004
:1035C0000068C0F340000028EFD1012F07D129483F
:1035D0003830006820F0805026493831086000BF3C
:1035E000A069002845D02348006800F00C00082896
:1035F0005DD0A069022845D100201F490866FEF76A
:1036000097FA054606E0FEF793FA401B022801D917
:10361000032035E6174808380068C0F340600028EA
:10362000F1D1D4E907010843616A40EA811101221E
:10363000A06AC2EB500041EA00412C20005D41EA43
:1036400000600C49091F086001200B490866FEF75D
:103650006FFA054606E0FEF76BFA401B022801D917
:1036600003200DE6034808380068C0F340600028D6
:10367000F1D049E00838024000004742800E47423E
:1036800000700040002021490866FEF751FA054607
:1036900006E0FEF74DFA401B022801D90320EFE5B2
:1036A0001B480068C0F340600028F2D12CE0A069FC
:1036B000012800D1E4E51648001D0668A06901282C
:1036C00020D006F48001E06981421BD106F03F0161
:1036D000206A814216D147F6C0703040616AB0EB73
:1036E000811F0FD106F440310122A06AC2EB5000C5
:1036F000B1EB004F06D106F070612C20005DB1EBFC
:10370000006F01D00120BBE50020B9E50000474271
:103710000038024010B504460CB9012010BD606AA3
:1037200038B96068B0F5827F00D105E00021E16121
:1037300002E00021216161610021A16294F8510041
:1037400028B9002084F85000204600F047F80220F5
:1037500084F851002068006820F04000216808606B
:10376000A08800F48270218901F404410843A189F2
:1037700001F400610843217C01F002010843217D2E
:1037800001F001010843218B01F400710843217FFE
:1037900001F0380108432021095D01F08001084350
:1037A000218D01F400510843216808600421A069BB
:1037B00001EA104094F8241001F010010843216838
:1037C00048602068C06920F400602168C86100205A
:1037D0006065012084F8510000209FE710B586B095
:1037E0000446142101A8FCF735FD1B4920688842D6
:1037F00030D100BF002000901848006840F400401D
:10380000164908600846006800F40040009000BFB8
:1038100000BF00BF0020009010481038006840F042
:1038200004000E49103908600846006800F00400E2
:10383000009000BF00BF4FF4E050019002200290C2
:1038400000200390032004900620059001A904485D
:10385000FEF766F806B010BD003C0040403802405C
:10386000000802402DE9FF5F0446884691461D4648
:103870000E9E012002900020019000BF94F850009D
:10388000012803D1022004B0BDE8F09F012084F894
:10389000500000BFFEF74CF9074694F851B060683D
:1038A0000390AA46BBF1010F0BD00398B0F5827FBD
:1038B00004D1A06810B9BBF1040F02D0022001901E
:1038C000DBE0B8F1000F03D0B9F1000F00D015B95B
:1038D00001200190D1E094F85100042802D0052085
:1038E00084F8510000206065C4F83890E587A5870A
:1038F000C4F83080E586A58620646064206800688E
:1039000000F04000402805D02068006840F04000EA
:1039100021680860E068B0F5006F4AD1606810B1B6
:10392000BAF1010F09D1206B00882168C860206BB3
:10393000801C2063E08E401EE08633E020688068B3
:1039400000F00200022810D1E08E70B10298012828
:103950000BD1206B00882168C860206B801C20631D
:10396000E08E401EE086002002902068806800F013
:10397000010068B1E08F58B12068C068A16B088071
:10398000A06B801CA063E08F401EE08701200290A6
:10399000FEF7CEF8C01BB04204D3701C10B1032058
:1039A00001906AE0E08E0028C8D1E08F0028C5D1E0
:1039B0004AE0606810B1BAF1010F09D1206B0078BC
:1039C00021680873206B401C2063E08E401EE08657
:1039D00034E02068806800F00200022810D1E08EF8
:1039E00070B1029801280BD1206B00782168087310
:1039F000206B401C2063E08E401EE0860020029079
:103A00002068806800F0010068B1E08F58B120683C
:103A1000C068A16B0870A06B401CA063E08F401EC3
:103A2000E08701200290FEF783F8C01BB04201D36B
:103A3000701C00B916B9032001901EE0E08E00282A
:103A4000C7D1E08F0028C4D13A463146204602F063
:103A5000A1FF20B101200190202060650DE0A06849
:103A600050B900BF002000902068C0680090206816
:103A70008068009000BF00BF00BF012084F85100A3
:103A800000BF002084F8500000BF0198FBE670B52D
:103A900004460E4615460CB9012070BD94F8490045
:103AA00028B9002084F84800204600F01CF804F1F2
:103AB00008012068FDF72CFC3146A2682068FDF75C
:103AC00055FC2946236BD4E90102FDF7FDFBA168F3
:103AD000206850F8210040F00100A268216841F8F8
:103AE00022000020D9E710B50446FDF77FFE10BD87
:103AF00070B504462546681EB0F1807F01D30120D1
:103B00000FE0681E4FF0E02148610F214FF0FF30B9
:103B100006F000FF00204FF0E021886107200861D7
:103B2000002070BD10B504460CB9012010BDA0697D
:103B300000B100E000BF94F83D0028B9002084F8EF
:103B40003C00204600F028F8242084F83D0020683E
:103B5000C06820F400502168C860204603F0E4F9F2
:103B60002068006920F4904021680861206840695D
:103B700020F02A00216848612068C06840F40050A5
:103B80002168C86000202064202084F83D0084F86B
:103B90003E000020CAE7000010B586B0044614219C
:103BA00001A8FCF757FB1B49206888422FD100BFB2
:103BB000002000901848006840F020001649086076
:103BC0000846006800F02000009000BF00BF00BF62
:103BD0000020009010481438006840F004000E499E
:103BE000143908600846006800F00400009000BF27
:103BF00000BFC0200190022002900020039003200B
:103C000004900820059001A90448FDF789FE06B03C
:103C100010BD00000014014044380240000802407A
:103C20002DE9F84F04460E46174699464FF0000A14
:103C300094F83D0020285AD106B117B90120BDE8FB
:103C4000F88F00BF94F83C00012801D10220F6E76C
:103C5000012084F83C0000BF00202064212084F86B
:103C60003D00FDF765FF8246A784E784A068B0F5B4
:103C7000805F04D1206910B90025B04602E03546C6
:103C80004FF0000800BF002084F83C0000BF1BE09C
:103C90005346002280212046CDF8009003F05AFAC6
:103CA00008B10320CBE745B9B8F80000C0F308001D
:103CB0002168486008F1020803E02878216848601C
:103CC0006D1CE08C401EE084E08C0028E0D153465F
:103CD000002240212046CDF8009003F03BFA08B1C5
:103CE0000320ACE7202084F83D000020A7E7022055
:103CF000A5E700BFFEE7014608684069C0F38020E1
:103D0000B0B16FF480600A68506100200863202021
:103D100081F83D00002081F83E00086C40F004006E
:103D2000086400BF002081F83C0000BF01207047FC
:103D30000020FCE72DE9F84304460F461546994656
:103D4000DDE908862068006840F48060216808602A
:103D50002068006840F480702168086043460022B3
:103D60004FF001112046009600F032F960B1206852
:103D7000006800F48070B0F5807F02D14FF40070CD
:103D800020640320BDE8F88307F0FE002168086185
:103D9000334642463E49204600F05DF908B1012015
:103DA000F0E700BF00200090206840690090206884
:103DB0008069009000BF00BF32464146204600F0B7
:103DC000ECF950B1206C042805D12068006840F45B
:103DD0000070216808600120D4E7B9F1010F03D118
:103DE000E8B22168086117E0C5F30720216808617F
:103DF00032464146204600F0D0F950B1206C0428EC
:103E000005D12068006840F4007021680860012036
:103E1000B8E7E8B22168086132464146204600F022
:103E2000BCF950B1206C042805D12068006840F42A
:103E30000070216808600120A4E72068006840F451
:103E4000807021680860434600224FF0011120462F
:103E5000009600F0BDF858B12068006800F480704A
:103E6000B0F5807F02D14FF400702064032089E711
:103E7000F8B240F001002168086133464246044927
:103E8000204600F0E8F808B101207BE7002079E740
:103E9000020001002DE9F84304468846154699467C
:103EA000DDE908672068006840F4807021680860D8
:103EB000334600224FF001112046009700F088F8A9
:103EC00060B12068006800F48070B0F5807F02D196
:103ED0004FF4007020640320BDE8F88308F0FE0072
:103EE000216808613B4632462149204600F0B3F87C
:103EF00008B10120F0E700BF002000902068406971
:103F0000009020688069009000BF00BF3A463146AB
:103F1000204600F042F950B1206C042805D12068F9
:103F2000006840F40070216808600120D4E7B9F10E
:103F3000010F03D1E8B22168086117E0C5F307203B
:103F4000216808613A463146204600F026F950B112
:103F5000206C042805D12068006840F400702168B6
:103F600008600120B8E7E8B2216808610020B3E7E3
:103F70000200010070B504460D46164620E02046BA
:103F8000FFF7B9FE08B1012070BD681CC0B1FDF794
:103F9000CFFD801BA84200D895B9002020632020C7
:103FA00084F83D00002084F83E00206C40F02000A2
:103FB000206400BF002084F83C0000BF0120E3E73C
:103FC00020684069C0F380000028D8D00020DBE7DB
:103FD0002DE9F04104460D4617461E46DDF81880CF
:103FE0001CE0701CD0B1FDF7A3FDA0EB0800B042AF
:103FF00000D89EB900202063202084F83D000020D6
:1040000084F83E00206C40F02000206400BF0020B7
:1040100084F83C0000BF0120BDE8F081C5F30740F3
:1040200001280AD120684069A9B20840A9B2884293
:1040300001D101200BE0002009E020688069A9B2CD
:104040000840A9B2884201D1012000E00020B84216
:10405000C7D00020E0E72DE9F04104460D461646A2
:104060001F463DE020684069C0F38020E8B1206829
:10407000006840F40070216808606FF48060216877
:10408000486100202063202084F83D00002084F84F
:104090003E00206C40F00400206400BF002084F843
:1040A0003C0000BF0120BDE8F081701CC0B1FDF7ED
:1040B0003FFDC01BB04200D896B9002020632020ED
:1040C00084F83D00002084F83E00206C40F0200081
:1040D000206400BF002084F83C0000BF0120E2E71C
:1040E000C5F3074001280AD120684069A9B20840F9
:1040F000A9B2884201D101200BE0002009E020682C
:104100008069A9B20840A9B2884201D1012000E02B
:1041100000200028A6D00020C5E770B504460D4653
:10412000164632E020684069C0F30010A0B16FF07D
:1041300010002168486100202063202084F83D00A1
:10414000002084F83E00206C206400BF002084F82A
:104150003C0000BF012070BDFDF7EAFC801BA842B7
:1041600000D895B900202063202084F83D0000206D
:1041700084F83E00206C40F02000206400BF002046
:1041800084F83C0000BF0120E5E720684069C0F3E7
:1041900080100028C6D00020DDE770B504460D462B
:1041A000164620E02046FFF7A6FD08B1012070BDAD
:1041B000681CC0B1FDF7BCFC801BA84200D895B9B3
:1041C00000202063202084F83D00002084F83E0079
:1041D000206C40F02000206400BF002084F83C00E8
:1041E00000BF0120E3E720684069C0F3C010002849
:1041F000D8D00020DBE730B50B46002100BF16E029
:104200000A24B4EB107F05D9302404EB107403F8B2
:10421000114005E0412404EB10740A3C03F81140FE
:10422000000100254C00641C1D554C1CE1B291425C
:10423000E6DB30BD2DE9F04F85B004460E469146D1
:104240009A4600254AE134F81500C0F3471814F8DF
:104250001500A0EB4810C7B2B9F1010F7ED1B8F13B
:10426000000F26D137B934F81510D6F8840046F877
:10427000210031E11F2F06D134F81510D6F8F800CF
:1042800046F8210028E134F81520213256F8221092
:1042900034F815201F3256F82200FBF7EDFF834655
:1042A0004FF08041FCF772F834F8151046F8210001
:1042B00012E1B8F1170F26D137B934F81510D6F836
:1042C000040B46F8210007E11F2F06D134F8151022
:1042D000D6F8780B46F82100FEE034F815201F3A96
:1042E00056F8221034F81520213A56F82200FBF730
:1042F000C3FF83464FF08041FCF748F834F81510AF
:1043000046F82100E8E0AFB934F81520213256F81C
:10431000221034F815201F3A56F82200FBF7ACFFA4
:1043200083464FF08041FCF731F834F8151046F819
:104330002100D1E01F2F17D134F815201F3256F875
:10434000221034F81520213A56F82200FBF794FF8A
:1043500083464FF08041FCF719F800E025E034F87F
:10436000151046F82100B7E034F81500213856F84A
:104370002000019034F815001F3856F820000290F4
:1043800034F815001F3056F82000039034F815005B
:10439000213056F820000490042101A806F02DFADF
:1043A00034F8151046F8210096E04FB934F815009E
:1043B000401C56F8200034F8151046F821008BE018
:1043C000012F01D01E2F15D134F81520521C56F89C
:1043D000221034F81520521E56F82200FBF74CFF2D
:1043E00083464FF08041FBF7D1FF34F8151046F8B3
:1043F000210071E01F2F09D134F81500401E56F836
:10440000200034F8151046F8210065E034F8151046
:10441000891E88B2514605F06BF9D0BB34F81510EF
:10442000891C88B2514605F063F990BB34F8152019
:10443000921C56F8221034F81520521C56F822000F
:10444000FBF76CFF019034F81520921E56F82210ED
:1044500034F81520521E56F82200FBF75FFF029039
:10446000029806F00CFA8346019806F008FA5946BD
:104470000090FCF7FDF90DD234F81520521E56F8C5
:1044800022000299FBF7F8FE34F8151046F82100D7
:1044900022E00CE034F81520521C56F82200019955
:1044A000FBF7EAFE34F8151046F8210014E034F862
:1044B0001520521C56F8221034F81520521E56F8BA
:1044C0002200FBF7D9FE83464FF08041FBF75EFFE9
:1044D00034F8151046F82100681CC5B234F81500F0
:1044E0004FF6FF7188427FF4AEAE05B0BDE8F08FA5
:1044F0000FB5A9B02998B0F882061290DDE929011C
:1045000000F014FD2890DDE9290100F093FC2790CC
:10451000FE492798FBF7B0FE269026990846FBF740
:1045200003FF269026990846FBF7FEFE2690F749E2
:104530002C98FBF7A1FE259025990846FBF7F4FE81
:10454000259025990846FBF7EFFE2590DDE925012A
:10455000FBF7E4FE0B902B99FBF718FF0C902599C5
:10456000FBF7DFFE24902A9890F84C0F0790FCF799
:10457000F2F802460B46CDE9080100204FF08041D9
:104580000CF056FBCDE90A01FCF74BF911902A9883
:1045900000F5805090F84D020790FCF7DCF80246D9
:1045A0000B46CDE9080100204FF080410CF040FBA4
:1045B000CDE90A01FCF735F910902A9890F84A06DF
:1045C0000790FCF7C8F802460B46CDE90801002029
:1045D0004FF080410CF02CFBCDE90A01FCF721F9EA
:1045E0000F902A98C06ACA490A90FBF79DFE4FF0C7
:1045F0007E510B90FBF740FE01460C904FF07E5031
:10460000FBF7C4FE14904FF07E5015902A98B0F935
:1046100044000A90FCF780F80B902A98006B014642
:104620000A900B98FBF780FE4FF07E510C90FBF741
:1046300023FE16902A98B0F94610B0F94400081AE3
:104640000990FCF769F80A902A98406B0146099096
:104650000A98FBF769FE4FF07E510B90FBF70CFEBA
:104660000C90169801460B900C98FBF75DFE179086
:104670002998B0F814060C90FCF757F82390A54938
:104680002398FCF7F5F805D24FF08F412398FBF7FC
:1046900045FE23902A98B0F914000B90FCF73CF8E3
:1046A0000C902399FBF772FE23902998B0F88006AE
:1046B00000F4805040111E902998B0F810060C901C
:1046C000FCF733F821902998B0F850060C90FCF7CD
:1046D0002CF8229000200C9024E021A90C9851F88D
:1046E00020008C490B90FCF7C3F80CD221A90C9840
:1046F00051F820004FF08F410B90FBF70FFE21AADD
:104700000C9942F8210021A90C9851F820000B9037
:104710002399FBF709FE21AA0C9942F821000C9875
:10472000401C0C900C980228D7DB7B492898FBF79B
:10473000F5FD08902A98C069014607900898FBF794
:10474000F3FD4FF07E510990FBF796FD73490B90F6
:104750002798FBF7E3FD06902A98006A014605902A
:104760000698FBF7E1FD4FF07E510790FBF784FDC3
:1047700009902A9800F58050B0F958020790FBF78D
:10478000CBFF08900999FBF7CFFD0A900B99FBF737
:10479000CBFD0C90219801460B900C98FBF7C1FDC6
:1047A00021902A9890F825101E9881423DD15A49AF
:1047B0002898FBF7B3FD08902A98C0690146079036
:1047C0000898FBF7B1FD4FF07E510990FBF754FDBF
:1047D00052490B902798FBF7A1FD06902A98006A92
:1047E000014605900698FBF79FFD4FF07E5107901C
:1047F000FBF742FD099041F258212A980844B0F98C
:1048000002000790FBF788FF08900999FBF78CFDE1
:104810000A900B99FBF788FD0C90229801460B90AB
:104820000C98FBF77EFD229047E03B492898FBF768
:1048300075FD08902A98C069014607900898FBF713
:1048400073FD4FF07E510990FBF716FD33490B9035
:104850002798FBF763FD06902A98006A01460590A9
:104860000698FBF761FD4FF07E510790FBF704FDC2
:10487000099041F258212A980844B0F902000690A4
:10488000FBF74AFF07902A9800F58050D0F85C02A9
:10489000014606900798FBF7EFFC08900999FBF793
:1048A00043FD0A900B99FBF73FFD0C9022980146BF
:1048B0000B900C98FBF735FD229000200C90E8E15E
:1048C0000C98C1170A9000EBD16041110C98C217E7
:1048D0000B9000EB92608011A1EB400040B21D9064
:1048E0000C980B9000EBD07041100C98A0EB41019C
:1048F0001D98414048B21C900C98801CC11708902C
:1049000000EB917081100C98C01C09E03393884330
:104910000000204200FEFF46333353400000C841F0
:10492000C217099000EB9270A1EBA0010C98401CFB
:10493000C2170A9000EB927001EBA0010C98C2170D
:104940000B9000EB9270A1EBA0011D984000C0F10C
:104950000100414348B21A901E9810B91D981B904F
:1049600001E01C981B902998B0F882161B98814290
:104970007DD10C99299830F811000B90FBF7D5FEEA
:104980002090C7492098FBF773FF05D24FF08F4165
:104990002098FBF7C3FC209023992098FBF7C4FCD8
:1049A00020902A9800F64C400C9940560A90FBF74C
:1049B000B3FE0B901199FBF7E9FC0E902A9800F6D4
:1049C0004D700C9940560A90FBF7A6FE0B9010997B
:1049D000FBF7DCFC0D90B3492898FBF79FFC079090
:1049E0000D99FBF7A1FC4FF07E510890FBF744FCBA
:1049F000AD490A902798FBF791FC05900E99FBF7BB
:104A000093FC4FF07E510690FBF736FC08902A98F5
:104A100000F24C600C9930F911000690FBF77CFE17
:104A200007900899FBF780FC09900A99FBF77CFC3A
:104A30000B902099FBF775FC20902A9890F8251090
:104A40001E9881422AD01A98FBF766FE099041F21F
:104A50005C212A9808444068014608900998FBF7B1
:104A600063FC0B901D984000401E079000E00DE194
:104A7000FBF752FE089041F25C212A9808448068B6
:104A8000014607900898FBF74FFC09902099FBF727
:104A9000F3FB0A900B99FBF741FC209021A9129897
:104AA00051F820000A902A98806909900A99FBF72A
:104AB0003BFC0B902099FBF734FC20902B9920981D
:104AC000FBF764FC20902A984A300C9930F81100CA
:104AD0000990FBF72AFE0B9074480F99FBF724FC12
:104AE0000A900B99FBF752FC1F906F492798FBF730
:104AF00015FC09902A98806A014608900998FBF7EE
:104B000013FC4FF07E510A90FBF7B6FB0B901F99F8
:104B1000FBF70AFC1F9024991F98FBF705FC0990EE
:104B20002099FBF7A9FB0B901F990846FBF7FCFBAC
:104B300009901F99FBF7F8FB0A900B99FBF7F4FB20
:104B40001990199805F09FFE0A9005F09CFE0B90B5
:104B50002A98006B01460A900B98FBF7E5FB199029
:104B60002A98006B52490390FBF7DEFB4FF07E5111
:104B70000490FBF7D6FB05901F99FBF7D5FB069039
:104B80001999FBF779FB014607902098FBF7FEFB8C
:104B900008902499FBF770FB099005F074FE0A90C9
:104BA00005F071FE42490B90FBF7B8FB18902A986C
:104BB000B0F942000A90FBF7AFFD0B901899FBF794
:104BC00057FE02D2002013901DE02A98B0F944004D
:104BD0000A90FBF7A1FD0B901899FBF749FE02D252
:104BE000012013900FE02A98B0F946000A90FBF7D5
:104BF00093FD0B901899FBF73BFE02D20220139015
:104C000001E0032013902A984030139930F91100E5
:104C10000190FBF781FD02901899FBF782FB03904E
:104C20002A982C30139950F82100014602900398DD
:104C3000FBF77AFB4FF07E510490FBF71DFB14A9A4
:104C40000690139851F82000014604901F98FBF736
:104C50006BFB05900699FBF767FB014607902098D0
:104C6000FBF794FB08902499FBF706FB099005F0ED
:104C70000AFE0A9005F007FE0D490B90FBF74EFB6C
:104C800018900C9A2E99189841F822000C98401C04
:104C90000C900C98B0F5407FFFF612AE2DB000BD21
:104CA00000FEFF46333353400000C841BD37863510
:104CB0003393884370B505460C4623464FF4507233
:104CC0004FF41051284600F095F970BD70B50446B8
:104CD0000D4600262946204604F05CFE2946204663
:104CE00004F07CFF2946204604F0D4FE29462046E5
:104CF00004F032FE2946204605F078FD294620467C
:104D000004F0D2FE2946204604F0ECFE2946204657
:104D100004F024FD2946204604F0CAFF2946204617
:104D200005F017FA2946204605F00EFC29462046D4
:104D300005F0EFFA2946204604F046FE29462046B3
:104D400005F058F90646304670BD2DE9FC41804615
:104D50000D4601270124002600270EE06B460122A4
:104D6000D103404600F046F9044614B12046BDE8A0
:104D7000FC81BDF8000000F00807002FEED026E00F
:104D800030224FF40041404600F064F90446601CB4
:104D900008B92046EBE72B464FF450724FF4806180
:104DA000404600F027F904460CB12046DFE76B4689
:104DB0000122D103404600F01DF904460CB1204603
:104DC000D5E7BDF8000000F00807701CC6B20FB1AF
:104DD000052ED5DB042E02DD6FF00700C7E701AB1F
:104DE000012248F20D01404600F004F90446BDF8E6
:104DF0000400A5F88006BDF8000000F00100A5F849
:104E000082060CB12046B2E7B5F88206AFE7F8B5E6
:104E100006466B46012248F20D01304600F0EAF8E2
:104E200005460DB12846F8BDBDF80000C0F3C21418
:104E30002046F8E72DE9F04F89B081460C4621461F
:104E4000484600F073F80690B9F84006FBF76DFC91
:104E5000079032490798FBF70BFD05D24FF08F41C1
:104E60000798FBF75BFA0790B9F80006FBF75DFCC3
:104E700082462A495046FBF7FBFC05D24FF08F4192
:104E80005046FBF74BFA82460022254B1046590349
:104E90000BF0CEFE0746884621690798FBF744FAD7
:104EA00051460190FBF7E8F9014602900798FBF79D
:104EB0006DFA0390FBF7A2FC3A464346CDE90401A4
:104EC000FBF749FB0546FBF7ACFC8246A089FBF7E4
:104ED0002CFC804613490698FBF720FA0590616880
:104EE000FBF722FA07464FF07E51FBF7C5F906465D
:104EF00031465046FBF74AFA05464146FBF70EFAA3
:104F000083465846A168FBF741FA05460649FBF778
:104F1000B3F98346584609B0BDE8F08F00FEFF465E
:104F200000003240333353400000C8412DE9F04FB8
:104F300087B005460C46B5F85406FBF7F6FB064667
:104F400028493046FBF794FC05D24FF08F4130469C
:104F5000FBF7E4F90646B5F88006C0F3812A50460F
:104F6000FBF7E8FB07463A460B4600204FF080412E
:104F70000BF05EFECDE9020194F82400FBF7EBFB99
:104F800007463A460B4600204FF080410BF050FE9A
:104F9000CDE90001DDE90223FBF74FFBCDE9040178
:104FA000FBF73FFC8146B4F90000FBF7B5FB059029
:104FB000B4F90200FBF7B0FB834631464846FBF7E5
:104FC000B3F959460490FBF7A9F980460599FBF718
:104FD000DDF907460449FBF74FF90646304607B0AE
:104FE000BDE8F08F00FEFF463333534010B500F0AC
:104FF000A5FB10BD2DE9FE4F8046894615461F468C
:105000003E464FF0000A00244FF6FF7101EA4500CA
:10501000CDE900600291002040EA480110234A4691
:105020000B48FCF773FE8246BAF1000F02D0601EF7
:10503000BDE8FE8F002405E0611C705C325D725497
:105040003055A41CB4EB450FF6DB0020F0E7000060
:10505000304100202DE9FF4105460E4614464FF031
:105060000008002040EA4500C7B220128DF80C006D
:10507000E0B28DF80D004FF6FF70022103AA102355
:10508000CDE900210290324639460D48FCF7B8FFC1
:105090008046B8F1000F04D04FF0FF3004B0BDE8F7
:1050A000F081084B012231462846FFF7A3FF05484F
:1050B0000088A04202D06FF00100EFE70020EDE78A
:1050C00030410020A0010020F8B506466B460122C1
:1050D00048F20D013046FFF78DFF054655B9BDF882
:1050E000000040F48054224648F20D013046FFF79C
:1050F000B1FF05462846F8BDF8B507460C466007DF
:10510000850D6B46012248F20D013846FFF772FF0C
:10511000064666B9BDF800004FF67F4108400543DA
:10512000AAB248F20D013846FFF794FF0646304612
:10513000F8BD70B50546D5F8BC4204B970BD41F262
:1051400010002044007B50B941F2100020448068D8
:1051500028B1607A18B90121284602F06CFD81213E
:10516000284602F068FD607A022807D1812128468E
:1051700002F061FD0121284602F05DFD00BFDDE780
:1051800070B50546D5F8BC4204B970BD41F21000B7
:105190002044406841F230012144486041F210004F
:1051A0002044806841F23001214488600121284672
:1051B00002F0DEFB1F2816D141F2100000592E49E3
:1051C000884210D141F210002044407B01280AD8C7
:1051D00041F210002044807B28B141F210002044AD
:1051E000807B10280ED941F210002044417B2023FF
:1051F0000522284601F08AF9022060722846FFF74E
:1052000098FF36E041F210002044417B41F210004B
:1052100022180F32284600F05DFD00280BDA207AB4
:10522000052804D10121284600F0E6F821E02846AF
:10523000FFF77FFF1DE0207A022819D0207A01288D
:1052400016D0207A032813D0E06830B104F11001A1
:105250002846E26800F0F4F80BE0E06820B900218D
:10526000284600F0C9F804E02846FFF762FF00E096
:105270008BE700BF89E700005553424370B50646EF
:105280000D46D6F8BC4204B970BD607A022808D138
:105290008121304602F0CFFC0121304602F0CBFCE8
:1052A0000CE005F08000802807D1607A012804D046
:1052B0000121304600F0A0F800E0E5E700BFE3E799
:1052C00070B505460E46D5F8BC4204B970BD207ACB
:1052D000022804D0032815D0042818D111E041F287
:1052E00010002044417B41F2100022180F32284662
:1052F00000F0F0FC002803DA0121284600F07CF8D9
:1053000006E000BF0021284600F076F800E000BF6C
:1053100000BF00BFDAE770B505460E46D5F8BC42BF
:1053200004B970BD207A10B1012816D103E02846D7
:10533000FFF726FF12E041F210002044417B41F2CA
:10534000100022180F32284600F0C4FC002803DAAF
:105350000121284600F050F800E000BF00BF00BF68
:10536000DFE70146D1F8BC0208B1002202727047A3
:1053700070B50546D5F8BC4204B970BD0020207256
:105380006072002141F261000155401E0155801CF0
:105390000155D5F8C0020168002088470121284640
:1053A00002F0D3FA8121284602F0CFFA1F2341F2FE
:1053B000100022180121284602F07CFB00BFDCE728
:1053C00070B50546D5F8BC4204B970BD0020207206
:1053D000012060728121284602F0C6F90121284689
:1053E00002F0C2F91F2341F21000221801212846C1
:1053F00002F060FB00BFE8E770B505460E46D5F841
:10540000BC4204B970BD0D4941F230000151204445
:105410000673002020720D2341F2300022188121F2
:10542000284602F034FC1F2341F21000221801210B
:10543000284602F03FFB00BFE4E70000555342530B
:105440002DE9F04106460F461546D6F8BC4241F21A
:10545000100020448068A84204D241F21000204489
:10546000806800E0284680460CB9BDE8F08141F232
:10547000300020448068401B41F2300121448860A4
:10548000002041F230012144087304202072434679
:105490003A468121304602F0FAFB00BFE5E7000002
:1054A0001FB5002000900190029003901548164906
:1054B00008604FF48030486000211348816001612A
:1054C000017680F82010C162104981620021C1601C
:1054D0000121C161002180F8301001214161FCF7F8
:1054E000FDF808B1FBF7BAFE002000900120019002
:1054F0000020029069460448FCF72AF808B1FBF73F
:10550000ADFE1FBD00200140984000200100000FAB
:1055100010B503490348FBF7A4FE0349087010BD0A
:10552000A3010020AC010020A201002000B587B03B
:105530001C216846FAF78EFE4FF02040184908609B
:10554000184848600620886000211548C160016144
:105550001021416100218161C161016241624FF40A
:10556000805181620021C1620163416381634164B2
:10557000012000900F200190012002900390102044
:1055800004901120059000200690002269460448EE
:10559000FEF77DFA08B1FBF761FE07B000BD000021
:1055A000E0400020040100A000B587B0142102A84B
:1055B000FAF750FE00BF002001905D48006840F0FF
:1055C00080005B4908600846006800F08000019098
:1055D00000BF00BF00BF002001900846006840F0F7
:1055E000010008600846006800F00100019000BF5B
:1055F00000BF00BF002001900846006840F0200076
:1056000008600846006800F02000019000BF00BF5D
:1056100000BF002001900846006840F010000860BC
:105620000846006800F01000019000BF00BF00BFF6
:10563000002001900846006840F00200086008461B
:10564000006800F00200019000BF00BF00BF002012
:1056500001900846006840F00800086008460068AD
:1056600000F00800019000BF00BF00BF00200190C3
:105670000846006840F0040008600846006800F032
:105680000400019000BF00BF00BF00200190084649
:10569000006840F0400008600846006800F04000E4
:1056A000019000BF00BF002202212248FCF73AFA15
:1056B00000224FF400412048FCF734FA0122D103C4
:1056C0001C48FCF72FFA48F20200029001200390D8
:1056D00004900020059002A91648FCF721F90C203F
:1056E00002904FF4041003900120049002A9114885
:1056F000FCF716F94FF4004002900120039004904B
:105700000020059002A90C48FCF70AF90022114676
:105710000820FCF7EFFD0820FCF7DCFD0022114615
:105720000920FCF7E7FD0920FCF7D4FD07B000BD18
:1057300030380240000002400004024010B50B481F
:105740000B4908600B484860002109488160C1602E
:105750004FF480410161002141618161C1610162B9
:10576000FCF7ECF908B1FBF779FD10BD00580040DB
:105770003041002040420F0010B50E480E4908602D
:105780004FF48270486000210B488160C160016164
:1057900041614FF4007181611021C16100210162FA
:1057A000416281620A21C162FDF7B4FF08B1FBF7D3
:1057B00055FD10BD003C00408441002010B50B4851
:1057C0000B4908604FF4E1304860002108488160CF
:1057D000C16001610C21416100218161C161FEF75D
:1057E000A1F908B1FBF73AFD10BD0000001401401B
:1057F000DC41002010B500220D490E4801F097FF52
:1058000008B1FBF72BFD0C490A4802F0ACFB08B1CC
:10581000FBF724FD0949074802F0DDFA08B1FBF760
:105820001DFD044802F080FC08B1FBF717FD10BD18
:105830002C00002020420020B40000208000002026
:1058400000BFFEE710B50122D1030248FCF76AF958
:1058500010BD00000000024010B500224FF40041CE
:105860000148FCF75FF910BD0000024010B50122AD
:10587000D1030248FCF756F910BD000000000240B9
:1058800001B582B0002001903220012301AA02A9B3
:1058900000900348FDF7E6FF9DF804000EBD0000F0
:1058A0008441002000BFFEE710B50248FCF753FF1B
:1058B00010BD0000F04600202DE9F04704460D46DB
:1058C00026683746D6F8408007F5306000EB451073
:1058D000D0F80890104880450BD909F40040B0F585
:1058E000004F06D14FF4004107F5306000EB451042
:1058F00081602046FDF737FB0748804508D92069BD
:10590000012805D104F571720121206803F058F9CE
:105910000020BDE8F08700000A30544F2DE9F04721
:1059200005460C46D5F800804646D8F8409006F566
:10593000306000EB441087682869012873D107F0B4
:10594000080008280FD1524881450BD907F40040C0
:10595000B0F5004F06D14FF4004106F5306000EB82
:105960004410816091E007F02000202806D120211A
:1059700006F5306000EB4410816086E007F02800F7
:1059800000280ED1424881450CD907F40040B0F5FB
:10599000004F07D14FF4004106F5306000EB441092
:1059A000816072E0C4EBC40105F5FE7000EB81007C
:1059B000816806F5306000EB44100069C0F3120006
:1059C000091AC4EBC40205F5FE7000EB8200816188
:1059D000C4EBC40105F5FE7000EB8100C4EBC4020A
:1059E000C16805F5FE7000EB820080680144C4EBDD
:1059F000C40205F5FE7000EB8200C1606CB9C4EB17
:105A0000C40105F5FE7000EB8100406928B905F579
:105A100071720121286803F0D3F8E1B22846FCF73F
:105A2000FFFC32E0FFE71B4881451BD107F4004033
:105A3000B0F5004F07D14FF4004106F5306000EBA0
:105A40004410816021E007F02000202805D12021AA
:105A500006F5306000EB44108160E1B22846FCF7A7
:105A6000DFFC12E06CB9C4EBC40105F5FE7000EB7D
:105A70008100406928B905F571720021286803F09A
:105A80009FF8E1B22846FCF7CBFC0020BDE8F08788
:105A90000A30544F0A31544F2DE9F84F07460E464D
:105AA000D7F80090C846C6EBC60107F13C0000EBF2
:105AB0008104D4E90510884202D90120BDE8F88F9D
:105AC000D4E90501451AA068A84200D2A568E81CDF
:105AD0004FEA900A17E0D4E90501451AA068A842E8
